S01800006275696C642F6D6963617A2F6D61696E2E73726563E5
S11300000C9449000C94FD040C9407050C94110500
S11300100C941B050C9425050C942F050C941907BE
S11300200C9439050C9468000C9468000C94990E97
S11300300C9437100C94C7040C94DD040C94430501
S11300400C94B6040C94330E0C9468000C94680061
S11300500C9468000C9468000C9468000C9468007C
S11300600C94D2040C9468000C9468000C946800FE
S11300700C9468000C9468000C9468000C9468005C
S11300800C9468000C9468000C94680000081C1818
S1130090141011241FBECFEFD0E1DEBFCDBF11E09D
S11300A0A0E0B1E0E0EDF6E300E00BBF02C0079092
S11300B00D92A432B107D9F712E0A4E2B1E001C075
S11300C01D92A63EB107E1F70E945E170C94671BD0
S11300D00C9400008FB7F894992708958FBF089562
S11300E0FC0182819927582F442781819927482B25
S11300F0592BCA01892F992786958695837090700C
S11301008230910559F08330910559F0892B19F407
S113011020E030E008C02CE93FEF05C022E030E0E9
S113012002C028E030E0CA0184E0989F812D99271D
S113013011248230910559F08330910559F0892BAF
S113014019F480E090E008C08CE99FEF05C082E0DC
S113015090E002C088E090E0280F391F2A5F3F4FEB
S1130160CF01820F931F0895282F9FB7F894662319
S113017049F0E82FFF27EC50FE4F8081882311F0CF
S113018021E006C0E22FFF27EC50FE4F608320E001
S1130190892F99278FBF822F99270895E82F8FB72A
S11301A0F894282F332790E0FF27EC50FE4F8081EE
S11301B0861709F491E02FBF892F99270895882382
S11301C011F06E9A08956E980895882311F06F9A2D
S11301D008956F98089580E00E94DF00BA9ABB9852
S11301E0B99AB89A6C9A80E00E94E5006B986A9874
S11301F081E00E94DF00709A8DB18C7F8DB90895E3
S1130200282F9FB7F894E82FFF27E85AFE4F8081E4
S11302108F3F81F4E091E402E21771F40BC0209364
S1130220600204C0FF27E85AFE4F20832093E402B3
S113023020E007C025E005C0809160028F3F91F760
S1130240EECF892F99278FBF822F992708951F9367
S1130250182F81E00E94DF001FB9779BFECF8FB17A
S113026099271F9108958F929F92AF92BF92CF9238
S1130270DF92EF92FF920F931F93CF93DF938FB789
S1130280F8949927C090DB02D090DC028090EC01B6
S11302909090ED01C091CB01D091CC012091390116
S11302A030913A01EAE0AE2EB12CAC0EBD1E2A15F7
S11302B03B0508F459018FBF7401EC0EFD1E860145
S11302C00C0F1D1F14C0C114D10419F0F801808152
S11302D001C080E00E9427018114910411F0F7010C
S11302E0808321960894E11CF11C0F5F1F4FC50108
S11302F00197C817D90738F381E00E94E5009FB73A
S1130300F894C114D10431F0CC0EDD1EF6018081C5
S11303108FB901C01FB8D093CC01C093CB01892FF2
S113032099278FBF80E090E0DF91CF911F910F91CB
S1130330FF90EF90DF90CF90BF90AF909F908F9001
S113034008952FB7F894332750933A014093390115
S11303509093DC028093DB027093ED016093EC01D7
S11303601092CC011092CB012FBF452B29F08FB1F5
S11303700E9433019927089589E00E94000180E0DA
S113038090E008958FB7F89499271092F6018FBFE3
S113039008951092DE021092DD02FC0121E030E0AB
S11303A0808191818617970719F481E090E0089580
S11303B03093DE022093DD022F5F3F4F36962B30C1
S11303C0310571F780E090E008951092DE021092FA
S11303D0DD02FC0121E030E08081918186179707DE
S11303E019F48281938108953093DE022093DD0213
S11303F02F5F3F4F36962B30310571F78FEF9FEF0C
S11304000895EF920F931F93AE2D99E0899FF00109
S11304101124EF52FE4F408351836283738304831C
S1130420158326833783A17080858E7F8A2B826013
S1130430808781E00E9400011F910F91EF90089541
S11304407FB7F89462B720913E0130913F0140910B
S113045040015091410106B601FE0FC081B792B729
S1130460280F311D411D511D2F5F3F4F4F4F5F4FCF
S1130470290F311D411D511D04C0260F311D411D81
S1130480511D872F99278FBFCA01B9010895109272
S1130490DE021092DD02FC0121E030E080819181D6
S11304A08617970719F48481958108953093DE02A5
S11304B02093DD022F5F3F4F36962B30310571F7C5
S11304C08FEF9FEF089580E8809356011092710199
S11304D01092D30210925F0210926D010895CF938F
S11304E0DF93FC0115A6DC019E96ED011B821A82A6
S11304F0198280E886A7DF91CF9108952F923F92C9
S11305004F925F926F927F928F929F92AF92BF921F
S1130510CF92DF92EF92FF920F931F93CF93DF93CB
S1130520CDB7DEB728970FB6F894DEBF0FBECDBFA8
S11305302090AB013090AC014090AD015090AE01E1
S1130540662477248824BEE4AB2EA3E8BA2ECC24F8
S1130550DD24EE24FF2400E010E0222D332D442D71
S1130560552D662D772D882D90E00E943C19298306
S11305703A834B835C836D837E838F839887822E3B
S1130580932EA42EB52E2401350100E20E943A1ABE
S1130590A22EB32EC42ED52EC301B20196958795F3
S11305A0779567956A0D7B1D8C1D9D1D97FF05C072
S11305B09F776F5F7F4F8F4F9F4F6093AB01709317
S11305C0AC018093AD019093AE0128960FB6F894D8
S11305D0DEBF0FBECDBFDF91CF911F910F91FF9072
S11305E0EF90DF90CF90BF90AF909F908F907F90CF
S11305F06F905F904F903F902F9008958FB7F8942D
S11306006091CF017091D0012CB53DB506B602FEC4
S113061004C06F5F7F4F2CB53DB599278FBF8827E6
S11306209927CB017727662744275527622B732BFD
S1130630842B952B0895EF92FF920F931F930E94A2
S1130640FE027B018C012091B7013091B8014091E9
S1130650B9015091BA018091B2019091B301A09176
S1130660B401B091B501820F931FA41FB51FE21608
S1130670F3060407150730F082179307A407B5079C
S113068058F005C082179307A407B507E0F5E816EC
S1130690F9060A071B07B8F59C01AD012E193F099D
S11306A0400B510B213060E8360760E0460760E0FC
S11306B0560768F180E090E8A0E0B0E0E80EF91E8B
S11306C00A1F1B1FE092B701F092B8010093B90111
S11306D01093BA0180E090E8AFEFBFEFE80EF91E87
S11306E00A1F1B1F20503048404050402093B20145
S11306F03093B3014093B4015093B50120E030E846
S113070040E050E014C020E030E040E050E080934E
S1130710B7019093B801A093B901B093BA011092B4
S1130720B2011092B3011092B4011092B501A90163
S1130730B7012CB53DB5C9018E199F0903968417DD
S1130740950720F0B9016D5F7F4F02C0640F751FDC
S11307506115710511F461E070E0615070407BBD7A
S11307606ABD80E186BF87B7806187BF1F910F9103
S1130770FF90EF9008950F931F930FB7F8941127EC
S11307806093B7017093B8018093B9019093BA0153
S11307902093B2013093B3014093B4015093B50157
S11307A00E941B030FBF1F910F91089597B79F7D60
S11307B097BF90E296BF882319F08EB5806402C07B
S11307C08EB58F7B8EBD87B7806287BF80E090E057
S11307D00895DF92EF92FF920F931F938FB7F894CF
S11307E0282F3327D22E91B782B746B7981711F026
S11307F041FF02C02FBF6AC08091C8018823E1F184
S11308000E942002E090F001F090F1010091F201C9
S11308101091F30120915201309153014091540100
S1130820509155016E197F09800B910B6217730764
S11308308407950720F01092C80171E01EC02E0DA8
S11308403F1D401F511F80913E0190913F01A09197
S11308504001B0914101281B390B4A0B5B0B273E29
S113086031054105510540F4822F223010F070E02B
S113087005C070E082E002C070E086EE682F61502F
S113088000B601FCFDCF82B7681709F46F5F2091B1
S11308903E0130913F014091400150914101DA0104
S11308A0C9010196A11DB11D860F911DA11DB11D88
S11308B082179307A407B50710F4622F609561BFF0
S11308C0DFBE772319F080E00E9400011F910F9191
S11308D0FF90EF90DF900895AFB7F894BB27E1E065
S11308E0E093C8016093F0017093F1018093F201E9
S11308F09093F30120935201309353014093540198
S113090050935501AFBF0E94E9030895AF92BF927F
S1130910CF92DF92EF92FF920F931F93CF93DF93C7
S1130920CDB7DEB728970FB6F894DEBF0FBECDBFA4
S113093020E070E0E0910001F091010132E14DE628
S11309405CE46FE4809101019E2F28960FB6F89421
S1130950DEBF0FBECDBFDF91CF911F910F91FF90EE
S1130960EF90DF90CF90BF90AF9008951F920F92B9
S11309700FB60F9211248F9383B783BF00B600FC88
S1130980FDCF8F910F900FBE0F901F901895789404
S11309901F920F920FB60F9211240F900FBE0F905B
S11309A01F90189578941F920F920FB60F921124EE
S11309B00F900FBE0F901F90189578941F920F926E
S11309C00FB60F9211242F933F938F939F932FB7BA
S11309D0F89433278091CF019091D00101969093A0
S11309E0D0018093CF012FBF9F918F913F912F9181
S11309F00F900FBE0F901F9018951F920F920FB675
S1130A000F9211240F900FBE0F901F9018951F92F4
S1130A100F920FB60F9211240F900FBE0F901F90DC
S1130A2018951F920F920FB60F9211240F900FBEBC
S1130A300F901F9018951F920F920FB60F921124CA
S1130A400F900FBE0F901F9018951F920F920FB624
S1130A500F9211240F900FBE0F901F9018951F92A4
S1130A600F920FB60F9211240F900FBE0F901F908C
S1130A7018951F920F920FB60F9211240F900FBE6C
S1130A800F901F9018951F920F920FB60F9211247A
S1130A902F933F934F935F936F937F938F939F9382
S1130AA0AF93BF93EF93FF9383B783BF00B600FC6C
S1130AB0FDCF81B799270196AA27BB2720913E0134
S1130AC030913F014091400150914101280F391F5D
S1130AD04A1F5B1F20933E0130933F014093400126
S1130AE05093410178940E94E903FF91EF91BF91E3
S1130AF0AF919F918F917F916F915F914F913F91B2
S1130B002F910F900FBE0F901F9018950F931F9366
S1130B10CF93DF93182F8FB7F894C82FDD270C2FAE
S1130B2061E080E00E94B400882321F0CFBF85E01B
S1130B3090E024C080911B018823A1F480912E01B0
S1130B40823081F409C082E080932E0110921B014F
S1130B500E94EB00B89AC0981093180180E00FBF70
S1130B6099270CC080912E01882369F38FB7F894DC
S1130B7099271092F4018FBF81E0F1CFDF91CF91DB
S1130B801F910F9108950F931F93182F0FB7F89487
S1130B9061E080E00E94B400882371F5109318018D
S1130BA080911B018823A9F580912E01823089F55B
S1130BB088E00CC00E94EB0080912E01882349F448
S1130BC081E080932E0110926E018AE00E94000160
S1130BD02AC08091B6018F3F31F5E0911A01EE23CE
S1130BE011F11CC01092190104C0FF27EA54FE4FF2
S1130BF0108210921A0117C081E090E002C0880FA1
S1130C00991F1A95E2F720912D01282B20932D018D
S1130C100AC080912E018823E1F6CCCF809119017E
S1130C208F3F19F7DFCF802F99278FBF80E090E0A7
S1130C301F910F9108951F9383E00E9486059927C1
S1130C40182F882319F083E00E94C305812F992768
S1130C501F910895CF92DF92EF92FF920F931F930B
S1130C60CF93DF938C01F62E6A01E22E8FB7F894AE
S1130C70C82FDD2760E080E00E94CE00882321F0A9
S1130C80CFBF80E090E01EC0CFBF0F0D111D802F9D
S1130C9080680E942701F82E16950795802F807C86
S1130CA00E9427010E2D0AC0EE2DFF27E01BF1093B
S1130CB0EC0DFD1D80810E94270101500023A1F746
S1130CC08F2D9927DF91CF911F910F91FF90EF9076
S1130CD0DF90CF900895CF93DF93CDB7DEB72C97F5
S1130CE00FB6F894DEBF0FBECDBF8FB7F894282F90
S1130CF0AE014F5F5F4FDA01EAEFF1E088E0019067
S1130D000D928150E1F7809172019091730189876E
S1130D10892F99278A878091BB019091BC018B8789
S1130D20892F99278C872FBF2CE060E080E691E023
S1130D300E942A062C960FB6F894DEBF0FBECDBFD4
S1130D40DF91CF9108951F93CF93DF93182F8FB71F
S1130D50F894C82FDD2760E080E00E94CE0088234D
S1130D6021F0CFBF80E090E005C0CFBF812F0E946B
S1130D7027019927DF91CF911F910895EF92FF9258
S1130D800F931F93CF93DF93182F7B01042F8FB7FB
S1130D90F894C82FDD2760E080E00E94CE0088230D
S1130DA021F0CFBF80E090E014C0CFBF1064812F4A
S1130DB099279093C0018093BF010E942701182FA7
S1130DC0402F5527B70180E090E00E94A101812FB8
S1130DD09927DF91CF911F910F91FF90EF90089584
S1130DE0C098609137017091380141E08FE30E940F
S1130DF0BE06089582E090E09093680180936701B5
S1130E0081E08093710120E030E08091180184300A
S1130E1011F421E030E0232B29F484E00E948605BC
S1130E20882319F40E94F006089584E00E94C30503
S1130E3008951F920F920FB60F9211242F933F9390
S1130E404F935F936F937F938F939F93AF93BF93CE
S1130E50EF93FF938091670190916801019749F4A2
S1130E6082E090E090936801809367010E94FA0603
S1130E7005C080916D018F5F80936D01FF91EF91AB
S1130E80BF91AF919F918F917F916F915F914F919E
S1130E903F912F910F900FBE0F901F9018951F93A5
S1130EA080912D01882309F04BC0109118011F3F38
S1130EB009F046C060E00E94CE00882309F440C0D7
S1130EC081E080930302809157018823E1F110921D
S1130ED0030285E090E045C0923069F5C09A8091A4
S1130EE0190120E030E08F3F11F421E030E0232BA2
S1130EF0E9F410931B018F3F19F42FEF30E00DC07C
S1130F00282F3327F901EA54FE4F80818093190179
S1130F108F3F11F410931A01108320936E0181E026
S1130F2080932E018AE00E94000105C010931B01EA
S1130F3010922E0111C080912E01882369F00FC0F8
S1130F4081E090E00EC080911B0190912E018823D6
S1130F5019F2923021F0EFCF80E00E94DF0080E0B0
S1130F6090E01F9108951F93182F81E090E09093D3
S1130F70300180932F01109257010E944F078FB7C1
S1130F80F8949927109329018FBF84E00E940001EF
S1130F901F9108951F93CF93DF939FB7F894C92FA0
S1130FA0DD271C2F90911801981721F0CFBF81E005
S1130FB090E03AC08FEF8093180130912D013323D4
S1130FC0F1F48FB7F89499271092F4018FBF0E941F
S1130FD04F07CFBF11C02093180181E090E002C0F9
S1130FE0880F991F4A95E2F78095382330932D0195
S1130FF088E00E9400011FBF80E090E015C080E0FF
S113100065E0E32FFF270E94BD1A292F492F55279A
S1131010CF01042E02C0959587950A94E2F780FDCE
S1131020DACF822F8F5FEFCFDF91CF911F91089599
S11310301F93CF93DF938FB7F894C82FDD271C2F0E
S11310408091670190916801892B29F484E00E94C2
S1131050CA07CFBF1EC01092710180916D01882311
S113106011F0B79904C00E9908C0882319F0815073
S113107080936D010E94FA060BC081E090E090938A
S113108068018093670110926D0184E00E94CA0791
S11310901FBFDF91CF911F9108950E946302C09AF0
S11310A0C09888E00E94A30688E00E94A306C09A24
S11310B084E00E94CA070E9418080895FF920F93C3
S11310C01F93CF93DF93F82E8B018FB7F894C82F1B
S11310D0DD2760E080E00E94CE00882321F0CFBFAE
S11310E080E090E00CC0CFBF8F2D0E942701812F9C
S11310F099270E942701802F0E9427019927DF91B9
S1131100CF911F910F91FF9008951F931FB7F894EB
S113111080916C01882319F460E070E009C060E0FC
S11311208091DA02882309F461E081E06827772757
S113113080917401882319F480E090E00AC090E063
S11311408091F901882309F491E081E09827892F9F
S11311509927762F6627770F770F770FF4E0880F9C
S1131160991FFA95E1F7826E9262682B792B81E1DF
S11311700E945E08812F99278FBF1F9108958FB712
S1131180F8949927609102028FBF85E0689FB001AF
S11311901124625D7E4F706488E10E945E080895A8
S11311A0EF92FF921F93CF93DF93E090A901F09009
S11311B0AA01F70182A59927182F882309F41FE1B2
S11311C0C09880916B01811749F0612F77276F7167
S11311D07070606E706885E10E945E0810936B0108
S11311E0F70110818FB7F894C82FDD2760E080E005
S11311F00E94CE00882311F0CFBF12C0CFBF8EE370
S113120090E09093C0018093BF018EE30E94270178
S11312101150412F552760E070E0C7010E94A101E1
S1131220DF91CF911F91FF90EF9008950F931F933B
S1131230CF93DF93EC010FB7F89411270E9470004D
S1131240FC018FE380830FBF1092D6021092D50267
S113125061E082E00E94B400882319F085E090E008
S113126072C0809104028F5F8093040281508B834B
S11312708FB7F894082F112762E081E00E94CE0016
S1131280882329F40FBF0E94C20181E05BC08FB79D
S1131290F894992724E02093F5018FBFD093C601D9
S11312A0C093C5010FBFFE01319681812981992721
S11312B0982F88273327822B932B80729C7C8983D9
S11312C0892F992781832981982F8827332721649F
S11312D0822B932B8983892F992781831CA618A697
S11312E019A619AA18AA1FA680E88EA761E0609320
S11312F0F8014091C5015091C6018FB7F894282F89
S1131300332780912F01909130018830910511F09D
S1131310019711F02FBF15C082E090E09093300147
S113132080932F016093E5025093AA014093A90191
S113133010923D012FBF0E941B06882311F40E94C6
S1131340D00880E09927DF91CF911F910F910895E4
S1131350CF93DF93DA01422F2D3118F082E090E031
S11313605EC0ED018B876E83872F99278F832FB7FC
S1131370F894332780917201909173012FBFFD017E
S11313808483892F992785832FB7F89433278091F5
S11313901C0190911D012FBF8887892F9927898768
S11313A03196818129819927982F882733272064B2
S11313B03868822B932B8983892F99278183435FF4
S11313C04C934D5080911F01882359F010921F01B6
S11313D0642FCD010E9416099927282F8823A9F488
S11313E017C0842F99279093C4018093C301B093AD
S11313F03401A09333018CE00E94000180911F010D
S1131400882349F489E090E00AC08FEF80931F019C
S1131410822F992704C01092AF0180E090E0DF9101
S1131420CF9108951F93182FE82FFF27EE0FFF1F6A
S1131430E353FE4F1182108210922201E091CD01FC
S1131440F091CE01309721F08091D40280FF0CC03E
S113145081E08093220103C08EE00E9400011123E9
S1131460A9F41092C70112C020812D50332767813F
S11314707727762F662786819927682B792BAF01EA
S113148083850E94A809882351F3E6CF1F9108950C
S11314909B0180912201882349F46091CD017091D0
S11314A0CE016217730711F40E94120A08958F92F5
S11314B09F92AF92BF92CF92DF92EF920F931F93BE
S11314C0CF93DF934C01EB018091D90181FF03C0DD
S11314D080E090E07AC0413039F58091240188237E
S11314E009F071C040932401E0910001F0910101E1
S11314F0EE0FFF1FE85FFE4FA080B180CC24DD24F7
S11315000E942002AB01BC0101E0E02E960185019E
S113151080E00E940102A5E7B1E0FE0184E30190AE
S11315200D928150E1F74BC0423041F58091250185
S1131530882309F048C081E080932501E0910001EF
S1131540F0910101EE0FFF1FE85FFE4FA080B18014
S1131550CC24DD240E942002AB01BC01B1E0EB2EBF
S11315609601850180E00E940102A5E7B1E0FE0139
S113157084E301900D928150E1F721C0442319F5D1
S1131580E0910001F0910101EE0FFF1FE85FFE4FB3
S1131590A080B180CC24DD240E942002AB01BC01D8
S11315A0E1E0EE2E9601850180E00E940102A5E7AC
S11315B0B1E0FE0184E301900D928150E1F7909235
S11315C036018092350181E090E0DF91CF911F9147
S11315D00F91EF90DF90CF90BF90AF909F908F903E
S11315E0089541E050E050930602409305022BEA2F
S11315F032E03093E0022093DF025093AC02409338
S1131600AB027093B4026093B3022C50304041E0BB
S1131610B9010E94570A0895DB01E2E0F0E0F0937B
S11316200602E09305026BEA72E07093E0026093B5
S1131630DF02F093AC02E093AB029093AE0280938E
S1131640AD025093B4024093B3023093B602209398
S1131650B5026C50704042E0CD010E94570A0895D3
S1131660FB0110920602109205026BEA72E070937D
S1131670E0026093DF021092AC021092AB02F0938E
S1131680AE02E093AD025093B0024093AF023093A8
S1131690B2022093B1026C50704040E00E94570A9D
S11316A00895AF92BF92CF92DF92EF92FF920F9381
S11316B01F93CF93DF935B016C01C0E0D0E0E1EDB9
S11316C0F1E0608561FF90C02081318142815381C6
S11316D0E480F58006811781D601C501821B930B36
S11316E0A40BB50B8E159F05A007B10708F47CC0A9
S11316F060FF03C06D7F608708C02E0D3F1D401F33
S1131700511F2083318342835383CC2321F0C13082
S113171009F070C043C020913501309136018091A9
S1131720C701882309F066C045E751E020937B0197
S1131730632F772760937C018AE0809380018091F6
S1131740CD019091CE01892B09F054C05093CE0164
S11317504093CD0189E18093750180912201882312
S1131760C9F0762F6627822F9927682B792B109240
S113177022012CE08AE00E94A8099927282F8823B7
S113178049F081E0809322011092CE011092CD01A4
S1131790222381F581E08093C7012CC067E070E0CB
S11317A083E692E00E94C901809328018823A9F06E
S11317B067E070E083E692E00E94E5019093CA013D
S11317C08093C901609100017091010125E030E02E
S11317D047E050E00E94300B0DC067E070E08FEFEF
S11317E09FEF0E94F10A06C021963996C330D105B5
S11317F009F067CF81E00E940001DF91CF911F9132
S11318000F91FF90EF90DF90CF90BF90AF9008952D
S1131810CF92DF92EF92FF920F931F93CFB6F8947B
S1131820DD240E947E02DC01CB0166E470E00E94AC
S1131830D61A7BE0E72EF12CE80EF91EF092E202B4
S1131840E092E1020E94FE0200271127A8019701FD
S11318500E94BB03CFBE1F910F91FF90EF90DF90CA
S1131860CF9008951F93CF93DF938FB7F894C82F29
S1131870DD271C2F80912F01909130010897C9F426
S113188089E00E94A30683E00E94CA07C09A81E00F
S113189090E09093300180932F018FB7F8949927AB
S11318A023E0209329018FBF84E00E940001CFBF71
S11318B030C0C0988091E502882311F085E001C012
S11318C084E00E94A30683FD09C080E00E94A30671
S11318D083FF04C085E090E020E003C083E090E053
S11318E021E09093300180932F01C09A1FBF2223DF
S11318F041F010923D0183E00E94CA070E94080C47
S113190008C00E94FE0220E431E040E050E00E9462
S1131910BB03DF91CF911F910895EF92FF920F9334
S11319201F93CF93DF938B018091BF019091C001EE
S113193086FF40C18F7B8F3309F08EC1C091370180
S1131940D091380158815093690180916701909139
S113195068018530910509F443C08630910509F486
S11319608AC0029709F01FC185E090E09093680156
S11319708093670140915601852F99270196242F62
S11319803327281739074CF1B79906C00E9904C0BC
S1131990451B415040935601409169014A32E8F495
S11319A04423A1F0BE016F5F7F4F483018F047E039
S11319B050E007C086E090E090936801809367014F
S11319C0552780E090E00E94A10146C11092710168
S11319D0C09A84E00E94CA07E3C00E944D083CC13B
S11319E086E090E090936801809367018091740190
S11319F0882309F439C08091F9018823A9F58981E4
S1131A0085FF32C08F814E812FB7F89433276091C0
S1131A10BB017091BC012FBF9927982F88275527A8
S1131A20842B952B8617970759F08F812E81992740
S1131A30982F88273327822B932B8F5F9F4FA1F4F6
S1131A4089818770813081F4C09AC0988AE00E94AD
S1131A50A306C09AC0984091690147502896BE01D8
S1131A608FE30E94BE06F8C0409169014750552794
S1131A702896BE01A6CFC09A80916D01882339F4BF
S1131A8084E00E94CA0780916D01882311F0B79900
S1131A900AC00E9B08C090915F02992321F08091A7
S1131AA069018B3038F480913701909138010E949C
S1131AB06F023DC0913001F5E091D302FF27EE0F94
S1131AC0FF1FEE0FFF1FE55FFD4F20813181428133
S1131AD05381E0913701F091380121ABBB27A52F49
S1131AE0942F832F80ABCA01AA27BB2787A7252F52
S1131AF033274427552726A78091D3029927019697
S1131B0068E070E00E94EA1A8093D30280915F0239
S1131B10815080935F02882351F080913701909126
S1131B2038010E946F021092D30210925F028091DA
S1131B306901FE01E80FF11D808187FF31C0012B8F
S1131B4079F169816770E0913701F0913801623071
S1131B5019F5A091A901B091AA01109709F18091FA
S1131B602F01909130010797D9F4ED019B81838176
S1131B709817B1F487B78F7E87BF908181E08CA7D7
S1131B80E90FF11D8291319688A780818F7789A70B
S1131B9080E00E94B30704C0613011F48BE02AC0D6
S1131BA00E94180859C010927101C09A84E00E94E2
S1131BB0CA0752C08E3309F04FC0C09A80912F01DA
S1131BC0909130010897C9F4C09889E00E94A30657
S1131BD0C09A83E00E94CA0781E090E090933001AC
S1131BE080932F018FB7F894992723E0209329013C
S1131BF08FBF84E00E9400012FC08091E5028823FA
S1131C0049F484E090E09093300180932F010E9486
S1131C10320C22C083E00E94CA0783E090E09093D4
S1131C20300180932F010E947E02DC01CB0166E328
S1131C3071E00E94D61AEBE0EE2EF12CE80EF91EAC
S1131C40F0924F01E0924E010E94FE0200271127FC
S1131C50A80197010E94BB03DF91CF911F910F91BF
S1131C60FF90EF9008951F920F920FB60F921124D8
S1131C702F933F934F935F936F937F938F939F9390
S1131C80AF93BF93EF93FF932FB1E091EC01F091E9
S1131C90ED01309739F08091CB019091CC01E80FA0
S1131CA0F91F20838091CB019091CC0101969093F0
S1131CB0CC018093CB0180E00E94E5004091390182
S1131CC050913A018091CB019091CC0184179507F2
S1131CD018F40E9433011CC06091EC017091ED0175
S1131CE08091DB029091DC021092ED011092EC01E4
S1131CF01092DC021092DB0210923A011092390128
S1131D001092CC011092CB012FB120E00E948D0CD7
S1131D10FF91EF91BF91AF919F918F917F916F91BF
S1131D205F914F913F912F910F900FBE0F901F9095
S1131D30189578941F920F920FB60F9211242F9238
S1131D403F924F925F926F927F928F929F92AF9247
S1131D50BF92CF92DF92EF92FF920F931F932F9334
S1131D603F934F935F936F937F938F939F93AF931F
S1131D70BF93CF93DF93EF93FF93C6B5D7B58FB7D8
S1131D80F894282E0E94FE029B012C1B3D0B442735
S1131D9055272B013C01421A530A640A750A8091A3
S1131DA02F01909130018530910521F0069709F0BB
S1131DB0E0C0BFC086E090E09093300180932F0193
S1131DC031E0332E309270011092310180E00E9494
S1131DD0D603E091A901F091AA0141AABB27A72D3E
S1131DE0962D852D80ABC301AA27BB2787A7872DF6
S1131DF09927AA27BB2786A7E091A901F091AA01F8
S1131E0085A5882309F484C06081655077274F0134
S1131E10860E971EF4012081E1808281A380992798
S1131E20AA27BB27BA2FA92F982F882733274427FF
S1131E305527522F442733272227FF240027112711
S1131E408701FF24EE242E293F29402B512BBB244C
S1131E50CC24DD242A293B294C295D29822B932B70
S1131E60A42BB52B84199509A609B7098383292FB7
S1131E703A2F4B2F552722839D0144275527218331
S1131E808B2F9927AA27BB278083C09824E0A4011D
S1131E9080E090E00E942A06C09AF4012081E1804B
S1131EA08281A3809927AA27BB27BA2FA92F982F0D
S1131EB08827332744275527522F4427332722279F
S1131EC0FF24002711278701FF24EE242E293F2910
S1131ED0402B512BBB24CC24DD242A293B294C291B
S1131EE05D29822B932BA42BB52B840D951DA61D48
S1131EF0B71D8383292F3A2F4B2F552722839D010A
S1131F004427552721838B2F9927AA27BB27808312
S1131F10E091A901F091AA01818185FF02C030926C
S1131F20570183E00E94CA0787B78F7E87BF8499D1
S1131F307AC01092700181E00E94D603E091A90159
S1131F40F091AA01818185FF0FC087E090E0909312
S1131F50300180932F010E94FE0220E031E040E036
S1131F6050E00E94BB0303C080E00E94B307849B3F
S1131F705AC080913101882391F5809170018823A2
S1131F8071F511E0109370010E94D60380B3209183
S1131F905F02283098F4E091D302E20FFF27E77044
S1131FA0F070EE0FFF1FEE0FFF1FE55FFD4F408245
S1131FB05182628273822F5F20935F0210933101FA
S1131FC0D093C201C093C10184992DC0992764E0C4
S1131FD0969587956A95E1F7182F117001C010E066
S1131FE0809170018130F9F4109270010E94D6033F
S1131FF0109231011123B9F48091C1019091C20171
S1132000C81BD90B2A9778F480915F02882319F0B2
S1132010815080935F028091A9019091AA01009759
S113202011F00E946F022FBEFF91EF91DF91CF91CB
S1132030BF91AF919F918F917F916F915F914F91DC
S11320403F912F911F910F91FF90EF90DF90CF90D0
S1132050BF90AF909F908F907F906F905F904F90C4
S11320603F902F900F900FBE0F901F90189578946B
S11320701F920F920FB60F9211241F932F933F9329
S11320804F935F936F937F938F939F93AF93BF937C
S1132090EF93FF9387B78F7E87BF78941FB7F89429
S11320A08091B2019091B301A091B401B091B501B6
S11320B00097A105B10509F051C080912F019091BD
S11320C030018530910561F18630910530F483301B
S11320D0910549F0049781F51AC087309105F1F014
S11320E0089751F514C0869B0FC084E090E090934C
S11320F0300180932F010E94FE0227E030E040E08F
S113210050E00E94BB0318C00E94080C15C00E9436
S11321101B06882389F40E94320C0EC080E00AC09A
S113212089E00E94A30681E00E94D60383E00E9416
S1132130CA0787E00E94B30780912A0190912B017E
S1132140019771F482E090E090932B0180932A012F
S1132150DE98DE9A80E00E94C30502C00E941B0341
S1132160812F99278FBFFF91EF91BF91AF919F91DD
S11321708F917F916F915F914F913F912F911F911B
S11321800F900FBE0F901F90189561E081E00E94A0
S1132190B4008823E9F48FB7F894282F332780916B
S11321A02A0190912B01892B11F02FBF20C081E0CF
S11321B090E090932B0180932A012FBFDD9A0E9417
S11321C0FE0224E130E040E050E00E94BB030FC077
S11321D062E081E00E94CE00882319F089E090E05B
S11321E0089561E081E00E94CE00882319F080E028
S11321F090E0089585E090E00895AF92BF92CF9269
S1132200DF92EF92FF920F931F93CF93DF93CDB79B
S1132210DEB7A8970FB6F894DEBF0FBECDBF8730E8
S113222009F496C1883098F4833009F418C18430D5
S113223038F4813009F45BC0823008F0B0C024C0A7
S1132240853009F463C1863008F07BC10EC18B3040
S113225009F4ABC28C3038F4893009F46FC28A3087
S113226008F08FC2AEC18D3039F08D3008F4A5C5A9
S11322708E3009F0F5C5E7C58091D402882309F4AE
S1132280EFC520E031E0C1C580916A01882361F582
S113229020910702309108024091090250910A02EC
S11322A0EFB7F894FF276091F0017091F1018091EC
S11322B0F2019091F301E0905201F09053010091EA
S11322C05401109155016E0D7F1D801F911FEFBFAA
S11322D020930702309308024093090250930A02A4
S11322E010926A010E946C040E94200243C00E9462
S11322F020025B016C018FB7F89499271092C801F2
S11323008FBFAFEFEA2EAFEFFA2EAFEF0A2FAFE792
S11323101A2F60E0E1EDF1E0808581FF1CC080812F
S11323209181A281B381A6019501281B390B4A0B27
S11323305B0BDA01C9012481358146815781281B51
S1132340390B4A0B5B0B2E153F05400751071CF454
S113235079018A0161E0399631E0EC3EF307E1F658
S1132360662309F47DC51E141F04100611062CF003
S1132370C601B5010E94510B73C5E0920702F092A9
S113238008020093090210930A0281E080936A0113
S1132390A8019701C601B5010E946C0461C50FB77D
S11323A0F894112781E00E94D603F1E0EF2EF12C7E
S11323B0F0923001E0922F011092310110925701F6
S11323C010926B010FBF0FB7F89411270E9463029C
S11323D0F0926801E09267011092710189B78F7BD6
S11323E089BF80E488BF8AB780628ABF8AB78F7E3C
S11323F08ABF89B7806489BF0FBF8FB7F894082F4D
S1132400112780912A0190912B01049719F483E0FC
S11324100E94A3060FBF0FB7F8941127C09A80E05B
S11324200E94CA070FBF8FB7F894992722E0209320
S1132430F5018FBF8091000190910101019709F08E
S11324400FC50E942002AB01BC01E1E0EE2E08E8BA
S113245013E120E030E081E00E94010201C58FB762
S1132460F89499271092F50171C08FB7F8949927C1
S1132470F09029018FBF63E081E00E94CE008823A1
S113248059F10FB7F89411271092300110922F01CF
S113249087B78F7E87BF87B78F7D87BF83E00E9412
S11324A0CA07C09A0FBF0FB7F8941127109268019A
S11324B0109267010E946302C09A89B78F7B89BF1B
S11324C00FBF10922B0110922A01DE98DD98DE9A3C
S11324D083E00E94000107C08FB7F894992722E097
S11324E02093F5018FBF0091C5011091C6010E9490
S11324F0C2018091D5029091D602892B09F0B0C413
S11325008FEF80931F014F2DB80176C48FB7F894D5
S1132510282F3327122F8091E302882309F581E0C5
S11325208093E30280912A0190912B01049721F476
S113253081E00E94C30503C086E00E9400011FBF22
S11325408FC48FB7F89499271092E3028FBF88C481
S11325508FB7F894282F332780912C01882311F00A
S11325602FBF7EC42FBF80B3992736E096958795F9
S11325703A95E1F7182F11709091BD018091BE0139
S11325808917D9F01917C9F484E090E090932B01CE
S113259080932A018FB7F894992721E020932C0186
S11325A08FBF60E070E08DE10E945E080E946B06C0
S11325B0C09AC09882E00E9400011093BE0187E097
S11325C06DC08FB7F8949927109118018FBF1230FE
S11325D009F467C0133030F4112359F0113009F0B5
S11325E03FC448C0133009F476C0143009F038C42D
S11325F0A2C0C0988FB7F894082F112780912A01A0
S113260090912B010297A1F583E090E090932B0128
S113261080932A0168E170E08DE10E945E0881E008
S11326208093BD0110922C0180B3992726E09695E2
S113263087952A95E1F7817090708093BE0187E0B9
S11326400E94000181E00E94A3066FE772E08CE122
S11326500E945E080E94BF080E94850866E57AE22F
S113266087E10E945E086FEF70E885E10E945E08D2
S11326700FBFF6C3C09886E00E94A3060E94BF085D
S11326800E9485080E946B06C09AC09883E00E944D
S1132690A306C09A81E00E94CA0786E00E94000156
S11326A0DFC3C0988FB7F894082F112760E080E04B
S11326B00E94CE00882311F00FBF0AC00FBF83E52C
S11326C00E94270180E00E94270180E00E942701E8
S11326D0C09A82E02DC08FB7F894992720912F01DA
S11326E08FBF243039F0283041F0223001F50E94A8
S11326F0D008B6C30E94320CB3C3C09889E00E94CC
S1132700A306C09A83E00E94CA078FB7F89499275A
S113271021E030E03093300120932F018FBF8FB739
S1132720F8949927109329018FBF84E0B7CF83E0F1
S11327300E94CA0795C30E94F00692C30FB7F8948B
S113274011274091390150913A016091EC01709147
S1132750ED018091DB029091DC021092ED01109268
S1132760EC011092DC021092DB0210923A011092FA
S113277039011092CC011092CB0120E00E948D0C03
S113278077CF2FB7F894332780916E0180931B0184
S113279082E080932E012FBF80911B01882309F0D2
S11327A05FC3B89AC09888E079CFA0913701B091FF
S11327B038011C919D01210F311DF9018081881F71
S11327C08827881FFD0183A7F90180818F77FD0188
S11327D081A721503040F9018081FD0180A7A0919B
S11327E03701B0913801FD0132818FB7F8949927F0
S11327F020916C018FBF222309F490C0832F992765
S113280096958795969587958370907082309105FB
S113281041F5878146812FB7F89433276091BB0136
S11328207091BC012FBF9927982F88275527842B97
S1132830952B8617970719F481E090E06CC0FD0191
S11328408781268140E050E09927982F88273327F5
S1132850822B932B8F5F9F4F11F441E050E0CA010C
S11328605AC0039709F0A0C29E012F5F3F4F4AEF61
S113287051E088E0FA010190AF01F90101929F0152
S11328808150C1F79E012F5D3F4FAE014F5F5F4FF7
S113289088E0FA010190AF01F90101929F01815092
S11328A0C1F79E01275F3F4FAE014F5D5F4F88E048
S11328B0FA010190AF01F90101929F018150C1F722
S11328C09E012F5E3F4FAE01475F5F4F88E0FA01E4
S11328D00190AF01F90101929F018150C1F79E015E
S11328E0275E3F4FAE014F5E5F4F88E0FA010190D3
S11328F0AF01F90101929F018150C1F748E050E016
S1132900BE01675E7F4FCD0106960E94531B892B43
S113291009F04AC203C0882309F446C21D3008F4F2
S113292043C2E0903701F0903801F7012281822FF1
S1132930992736E0969587953A95E1F7039719F428
S113294068E070E002C062E070E0822F99279695FB
S113295087959695879583709070039719F488E00E
S113296090E002C082E090E026E030E0E20EF31E48
S113297040E050E020E030E0F701E80FF91F8AEF73
S11329809FEFE80EF91E05C08191480F511D2F5F7E
S11329903F4F26173707C4F3F70163818FEF809306
S11329A0D9028FB7F894782F20E030E0E2E4F1E028
S11329B0808191818417950731F48281861709F407
S11329C0EBC12093D9022F5F3F4F3396243031055A
S11329D079F77FBF9091D9023FB7F8949F3F21F0D8
S11329E080913201891799F420913201822F99271D
S11329F0FC01EE0FFF1FE80FF91FEE5BFE4F518342
S1132A00408362832F5F2370209332010CC0892F8F
S1132A109927FC01EE0FFF1FE80FF91FEE5BFE4F35
S1132A20518340836283832F99278FBF0FB7F89414
S1132A301127C7010E947000FC0190810FBFF701AC
S1132A4083A5882309F4ACC19F3309F0A9C1878108
S1132A5046812FB7F894332760911C0170911D01B2
S1132A602FBF9927982F88275527842B952B8617B6
S1132A70970761F0878126819927982F8827332724
S1132A80822B932B8F5F9F4F09F08AC1F7018385B7
S1132A908A3009F085C1D7011C96B0933C01A093FC
S1132AA03B018485958581309105B1F18130910593
S1132AB020F0029709F072C16FC0FD016481758135
S1132AC080910001909101016817790709F466C1AA
S1132AD083E692E00E94C90180932801882309F4C7
S1132AE05DC1E0913B01F0913C016481758183E615
S1132AF092E00E94E5019093CA018093C901E0919C
S1132B003B01F0913C0126813781448155816281EA
S1132B1073810E94300B42C1FD01A085B185809173
S1132B20000190910101A817B90739F421E030E0C0
S1132B30AD016FEF7FEFCD0125C0BD0183E692E0CB
S1132B400E94C90180932801E0913B01F0913C016E
S1132B508823D9F06085718583E692E00E9447025C
S1132B6001969093D8028093D702E0913B01F091B3
S1132B703C01408551859C016FEF7FEF80910001FE
S1132B80909101010E940C0B09C1608571858FEF42
S1132B909FEF0E94F10A02C1FD016085718583E601
S1132BA092E00E94C90180932801E0913B01F091D9
S1132BB03C016085718583E692E00E944702AC0186
S1132BC09093B1018093B001E0913B01F0913C01FD
S1132BD024813581809100019091010128173907E2
S1132BE009F49FC080912801882331F08285938560
S1132BF08417950708F095C0C284D384E280F380DB
S1132C0000851185B80183E692E00E94C901809392
S1132C10EE01882351F11092DE021092DD0280E071
S1132C2090E020E030E0FC01EE0FFF1FE80FF91FF9
S1132C30EE0FFF1FED59FD4F8081918180179107A1
S1132C4069F4F382E282F901EE0FFF1FE20FF31F32
S1132C50EE0FFF1FED59FD4FD582C482C9010196C5
S1132C609C018A309105FCF235C01092DE0210926C
S1132C70DD0280E090E020E030E0FC01EE0FFF1F79
S1132C80E80FF91FEE0FFF1FED59FD4F8081918171
S1132C908F5F9F4FC9F4828193818F5F9F4FA1F40F
S1132CA0848195818F5F9F4F79F411830083F901AB
S1132CB0EE0FFF1FE20FF31FEE0FFF1FED59FD4F45
S1132CC0F382E282D582C482C90101969C018A30D2
S1132CD091059CF29093DE028093DD02E0913B012A
S1132CE0F0913C016085718583E692E00E94470281
S1132CF001969093D8028093D702BC0183E692E0B8
S1132D000E944702E0913B01F0913C0140855185CE
S1132D109C016FEF7FEF80910001909101010E946F
S1132D200C0BE0912601F0912701EE5FFE4F8081AC
S1132D3063E00E94C91A892F992787FD9095909383
S1132D405101809350018130910561F081309105EA
S1132D5018F00297A9F40CC08FB7F89499272BB3F5
S1132D6034E00BC08FB7F89499272BB332E005C039
S1132D708FB7F89499272BB331E023272BBB8FBF50
S1132D80809126019091270101968770907090930D
S1132D9027018093260102C07FBF02C0EE24FF24D6
S1132DA0F0923801E09237018FB7F8949927109286
S1132DB071018FBF0E94180853C09091AF01809198
S1132DC01F01981709F44CC090931F019923C9F46B
S1132DD000913301109134016091C301C8010E9434
S1132DE01609482F55274423D9F18FEF80931F01EB
S1132DF06091330170913401F80183850E94480A7F
S1132E002FC08FEF80931F012BC09091D402832F8A
S1132E108923A1F0E22FFF27EE0FFF1FE353FE4F9C
S1132E2011821082832F809598239093D4022223B9
S1132E3029F41092C701330F21E0E7CF2F5F283028
S1132E4078F4330FE2CF80912201E82FFF27EE0FB1
S1132E50FF1FE353FE4F6081718141E00E94120A1B
S1132E60A8960FB6F894DEBF0FBECDBFDF91CF9109
S1132E701F910F91FF90EF90DF90CF90BF90AF9094
S1132E800895809160028F3FB1F0282F3327F90114
S1132E90E85AFE4F8081809360028F3F11F4809343
S1132EA0E4028FEF80832F3F31F0822F0E94FD10C8
S1132EB081E090E0089580E090E008951F93CF931F
S1132EC0DF93CDB7DEB7E0970FB6F894DEBF0FBE41
S1132ED0CDBF1FB7F8944FE050E06FEF70E088E586
S1132EE091E00E94601B8FEF809360028093E40264
S1132EF081E08EBD88E080BF83E083BF8CB59DB543
S1132F004AE72CB53DB52817390708F44150442346
S1132F1011F0C901F6CF92B782B78917E9F32CB53E
S1132F203DB592B782B78917E9F38CB59DB5821B7D
S1132F30930B409675E0969587957A95E1F7909373
S1132F4062028093610213BE83B78EBD8EB580BFCB
S1132F5012BE1DBC1CBC8FEF86BF86B780937C005D
S1132F6080B7992787709070892BD1F7D29AD19A1C
S1132F70D09ADA9AD99AD89A15BA8FEF84BBD49892
S1132F80DC981DBC1CBC87B7846087BF8EB5887F66
S1132F9084608EBD0E9441178823E1F78FEF8093F0
S1132FA06F01E2E4F1E08FEF9FEF9183808312825F
S1132FB0339621E0EE34F207C1F70E947E0260935B
S1132FC0040280910001909101010196AA27BB2778
S1132FD08093AB019093AC01A093AD01B093AE018B
S1132FE08BE292E090933801809337018E98B89ADF
S1132FF08C988FEF8093B6011092F4011092F50132
S11330001092F6011092F701B89AD69AD59A8FB712
S1133010F894992720911C0130911D018FBF3093A2
S1133020BC012093BB010E94860429A73AA74BA7A1
S11330305CA76DA77EA78FA798ABDE019196FE01D2
S1133040B99688E001900D928150E1F7DE01519626
S1133050FE01B19688E001900D928150E1F7DE0106
S11330605996FE01719688E001900D928150E1F726
S1133070AAEFB1E0FE01799688E001900D928150AB
S1133080E1F780911E019927909373018093720157
S11330908FE18093EF018AE1809302020E9486040B
S11330A029A73AA74BA75CA76DA77EA78FA798ABC4
S11330B0DE019196FE01B99688E001900D9281504F
S11330C0E1F7DE011196FE01B19688E001900D92C0
S11330D08150E1F7DE011996FE01319688E00190F6
S11330E00D928150E1F7AAEFB1E0FE01399688E034
S11330F001900D928150E1F7AAEFB1E0FD013796FE
S11331009C9180818D939083319781E0ED3FF80706
S1133110B9F781E080936C011092DA028093740114
S11331201092F90180B7886080BF8BE083BF86EE80
S113313081BF87B7826087BF0E94E9030E9441175D
S11331408823E1F7812F99278FBF78941092DE02AC
S11331501092DD0280E090E04FEF5FEF20E030E07E
S1133160A3E6B2E0FC01EE0FFF1FE80FF91FEE0F1C
S1133170FF1FED59FD4F11821082FD01138212824F
S1133180558344832F5F3F4F1696C9012A3031057A
S11331904CF38AE090E09093DE028093DD020E947B
S11331A0C5108FB7F894482F55274BC087B7992778
S11331B083709070892B19F4E5E0F0E013C080B7B8
S11331C0992787709070892BD1F781B792B7891BA3
S11331D08C3030F082B7853F18F4E3E0F0E002C0B1
S11331E0E2E0F0E087B7887BC1F480917D008B7FBB
S11331F0A1F46E9912C08AB190919A00892B8871BA
S113320061F48091740082FD08C0379B03C081E0A3
S113321090E005C085E090E002C080E090E025B732
S11332208E1708F4E82FFF27E457FF4FE491237E1D
S11332302062E22BE5BF78948895F89485B78F7D5A
S113324085BF809160028F3F09F4B0CF282F3327C8
S1133250F901E85AFE4F8081809360028F3F11F498
S11332608093E4028FEF80832F3F09F49FCF4FBFF9
S1133270822F0E94FD1095CFACE2B0E0E2E4F9E1C8
S11332800C941C1B222E332E442E552E662E772E84
S1133290882E992EFE013196A8E01192AA95E9F79D
S11332A029823A824B825C826D827E828F829886EA
S11332B0FE013996B8E01192BA95E9F7A986BA8663
S11332C0CB86DC86ED86FE860F87188B89819A81F2
S11332D0AB81BC8189A79AA7ABA7BCA77C018D0150
S11332E08FEF9FEFA0E0B0E0E822F9220A231B232E
S11332F089A59AA5ABA5BCA51D014424552489859F
S11333009A85AB85BC858DA39EA3AFA3B8A75C01AA
S11333106D018FEF9FEFA0E0B0E0A822B922CA228E
S1133320DB228DA19EA1AFA1B8A53D0188249924DB
S1133330C801B701A60195010E94FD1A69A37AA3E9
S11333408BA39CA3C801B701A40193010E94FD1A99
S11333507B018C01C201B101A60195010E94FD1AF5
S11333605B016C01C201B101A40193010E94FD1A29
S11333703B014C01EA0CFB1C0C1D1D1D89A19AA1EB
S1133380ABA1BCA19D01442755272E0D3F1D401F15
S1133390511F2A153B054C055D0540F480E090E083
S11333A0A1E0B0E0680E791E8A1E9B1ECA01AA27FE
S11333B0BB27860D971DA81DB91D8D8F9E8FAF8FBE
S11333C0B8A3A9013327222789A19AA1ABA1BCA143
S11333D0A070B070280F391F4A1F5B1F298F3A8FC6
S11333E04B8F5C8FA98CBA8CCB8CDC8CED8CFE8CD7
S11333F00F8D18A1FE01719698E011929A95E9F744
S1133400ED8AFE8A0F8B188F2D813E814F8158855E
S11334106DA17EA18FA198A50E94FD1A3B014C01CC
S11334202D853E854F85588969A57AA58BA59CA5D0
S11334300E94FD1A2D893E894F89588D260F371F0A
S1133440481F591F260D371D481D591D2D8B3E8BB6
S11334504F8B588F6D887E888F88988C2A2D3B2DB2
S11334604C2D5D2D662D772D882D992DE2E1AC969E
S11334700C94381BA0E1B0E0E0E4FAE10C941C1BCE
S1133480222E332E442E552E662E772E882E992EDC
S1133490002309F466C088E0FE01319611928A95F2
S11334A0E9F729833A834B835C836D837E838F8220
S11334B09887E0E2E01B1E16CCF52D813E814F81FA
S11334C05885602F772767FD7095DA01C901062EAC
S11334D004C0B695A795979587950A94D2F78D87DA
S11334E09E87AF87B88B04C0220F331F441F551F1C
S11334F0EA95D2F789819A81AB81BC8104C0B695E3
S1133500A795979587956A95D2F7282B392B4A2B3F
S11335105B2B29873A874B875C8729843A844B84C1
S11335205C846D847E848F8498881BC01D861E866F
S11335301F86188A2E2F332727FD30953095219525
S11335403F4F8D819E81AF81B88504C0B695A79504
S1133550979587952A95D2F789879A87AB87BC87F1
S1133560DCCF222D332D442D552D662D772D882D1E
S1133570992DE2E160960C94381B991B79E004C004
S1133580991F961708F0961B881F7A95C9F780959E
S1133590089587FB082E062687FD819567FD6195B2
S11335A0ECDF0EF4919507FC81950895AA1BBB1BD3
S11335B051E107C0AA1FBB1FA617B70710F0A61B2F
S11335C0B70B881F991F5A95A9F780959095BC0150
S11335D0CD01089597FB092E07260AD077FD04D064
S11335E0E5DF06D000201AF4709561957F4F0895A9
S11335F0F6F7909581959F4F0895629FD001739F30
S1133600F001829FE00DF11D649FE00DF11D929F7A
S1133610F00D839FF00D749FF00D659FF00D9927B9
S1133620729FB00DE11DF91F639FB00DE11DF91FDD
S1133630BD01CF01112408952F923F924F925F92C2
S11336406F927F928F929F92AF92BF92CF92DF92AE
S1133650EF92FF920F931F93CF93DF93CDB7DEB713
S1133660CA1BDB0B0FB6F894DEBF0FBECDBF0994A7
S11336702A88398848885F846E847D848C849B84FE
S1133680AA84B984C884DF80EE80FD800C811B810C
S1133690AA81B981CE0FD11D0FB6F894DEBF0FBE3B
S11336A0CDBFED010895FB01DC0104C08D910190B3
S11336B0801921F441505040C8F7881B990B089594
S11336C0DC0101C06D9341505040E0F70895FFCFF5
S11336D0010001000508010109073D00AD000B01CF
S11336E07301DF014702B102FFFFFFFF010022FF68
S10736F0FFFF0100D3
S9030000FC
