:100000000C9449000C943A050C9444050C944E054C
:100010000C9458050C9462050C946C050C9419070B
:100020000C9476050C9468000C9468000C948C0E6B
:100030000C942A100C9404050C941A050C94800559
:100040000C94F3040C94260E0C9468000C94680035
:100050000C9468000C9468000C9468000C94680080
:100060000C940F050C9468000C9468000C946800C4
:100070000C9468000C9468000C9468000C94680060
:100080000C9468000C9468000C94680000081C181C
:10009000141011241FBECFEFD0E1DEBFCDBF11E0A1
:1000A000A0E0B1E0E6E8F8E300E00BBF02C0079093
:1000B0000D92A432B107D9F712E0A4E2B1E001C079
:1000C0001D92AB3EB107E1F70E942E180C94421C22
:1000D0000C9400008FB7F894992708958FBF089566
:1000E000FC0182819927582F442781819927482B29
:1000F000592BCA01892F9927869586958370907010
:100100008230910559F08330910559F0892B19F40B
:1001100020E030E008C02CE93FEF05C022E030E0ED
:1001200002C028E030E0CA0184E0989F812D992721
:1001300011248230910559F08330910559F0892BB3
:1001400019F480E090E008C08CE99FEF05C082E0E0
:1001500090E002C088E090E0280F391F2A5F3F4FEF
:10016000CF01820F931F0895282F9FB7F89466231D
:1001700049F0E82FFF27E650FE4F8081882311F0D9
:1001800021E006C0E22FFF27E650FE4F608320E00B
:10019000892F99278FBF822F99270895E82F8FB72E
:1001A000F894282F332790E0FF27E650FE4F8081F8
:1001B000861709F491E02FBF892F99270895882386
:1001C00011F06E9A08956E980895882311F06F9A31
:1001D00008956F98089580E00E94DF00BA9ABB9856
:1001E000B99AB89A6C9A80E00E94E5006B986A9878
:1001F00081E00E94DF00709A8DB18C7F8DB90895E7
:100200000F931F93CF93DF93182F8FB7F894C82FB6
:10021000DD270C2F61E080E00E94B400882321F0EC
:10022000CFBF85E090E024C080911C018823A1F419
:1002300080913201823081F409C082E080933201E2
:1002400010921C010E94EB00B89AC09810931901FB
:1002500080E00FBF99270CC080913201882369F399
:100260008FB7F89499271092FA018FBF81E0F1CFF0
:10027000DF91CF911F910F910895282F9FB7F89488
:10028000E82FFF27E45AFE4F80818F3F81F4E091F1
:10029000E902E21771F40BC02093660204C0FF2745
:1002A000E45AFE4F20832093E90220E007C025E0B6
:1002B00005C0809166028F3F91F7EECF892F992775
:1002C0008FBF822F992708951F93182F81E00E94D6
:1002D000DF001FB9779BFECF8FB199271F9108953B
:1002E0008F929F92AF92BF92CF92DF92EF92FF9246
:1002F0000F931F93CF93DF938FB7F8949927C090F4
:10030000E202D090E3028090F3019090F401C0915A
:10031000D201D091D30120913D0130913E01EAE01C
:10032000AE2EB12CAC0EBD1E2A153B0508F45901AA
:100330008FBF7401EC0EFD1E86010C0F1D1F14C033
:10034000C114D10419F0F801808101C080E00E943D
:1003500064018114910411F0F701808321960894BF
:10036000E11CF11C0F5F1F4FC5010197C817D9078A
:1003700038F381E00E94E5009FB7F894C114D104DE
:1003800031F0CC0EDD1EF60180818FB901C01FB89F
:10039000D093D301C093D201892F99278FBF80E0DA
:1003A00090E0DF91CF911F910F91FF90EF90DF9040
:1003B000CF90BF90AF909F908F9008952FB7F894F3
:1003C000332750933E0140933D019093E302809385
:1003D000E2027093F4016093F3011092D301109242
:1003E000D2012FBF452B29F08FB10E9470019927B0
:1003F000089589E00E943D0180E090E008958FB764
:10040000F89499271092FC018FBF08951092C901AA
:100410001092C801FC0120E030E0808191818617B4
:10042000970719F481E090E008952F5F3F4F3093D4
:10043000C9012093C80136962A30310571F780E052
:1004400090E008951092C9011092C801FC0120E0CB
:1004500030E0808191818617970719F4828193811A
:1004600008952F5F3F4F3093C9012093C8013696FE
:100470002A30310571F780E090E00895EF920F93F4
:100480001F93AE2D99E0899FF0011124E852FE4F91
:100490004083518362837383048315832683378368
:1004A000A17080858E7F8A2B8260808781E00E9488
:1004B0003D011F910F91EF9008957FB7F89462B7B7
:1004C00020914201309143014091440150914501F6
:1004D00006B601FE0FC081B792B7280F311D411D2E
:1004E000511D2F5F3F4F4F4F5F4F290F311D411D52
:1004F000511D04C0260F311D411D511D872F992705
:100500008FBFCA01B90108951092C9011092C801A4
:10051000FC0120E030E0808191818617970719F473
:100520008481958108952F5F3F4F3093C9012093B7
:10053000C80136962A30310571F78FEF9FEF089585
:1005400080E880935A01109276011092D90210929D
:100550006502109271010895CF93DF93FC0115A6F7
:10056000DC019E96ED011B821A82198280E886A723
:10057000DF91CF9108952F923F924F925F926F92A9
:100580007F928F929F92AF92BF92CF92DF92EF9223
:10059000FF920F931F93CF93DF93CDB7DEB72897CA
:1005A0000FB6F894DEBF0FBECDBF2090B0013090E3
:1005B000B1014090B2015090B301662477248824A1
:1005C000BEE4AB2EA3E8BA2ECC24DD24EE24FF2417
:1005D00000E010E0222D332D442D552D662D772D72
:1005E000882D90E00E94171A29833A834B835C83FD
:1005F0006D837E838F839887822E932EA42EB52EB3
:100600002401350100E20E94151BA22EB32EC42E38
:10061000D52EC301B20196958795779567956A0D9A
:100620007B1D8C1D9D1D97FF05C09F776F5F7F4FC2
:100630008F4F9F4F6093B0017093B1018093B201CF
:100640009093B30128960FB6F894DEBF0FBECDBFCE
:10065000DF91CF911F910F91FF90EF90DF90CF909E
:10066000BF90AF909F908F907F906F905F904F90D2
:100670003F902F9008958FB7F8946091D6017091B4
:10068000D7012CB53DB506B602FE04C06F5F7F4FA3
:100690002CB53DB599278FBF88279927CB017727A0
:1006A000662744275527622B732B842B952B08959F
:1006B000EF92FF920F931F930E943B037B018C01EB
:1006C0002091BC013091BD014091BE015091BF010C
:1006D0008091B7019091B801A091B901B091BA0190
:1006E000820F931FA41FB51FE216F3060407150718
:1006F00030F082179307A407B50758F005C082179A
:100700009307A407B507E0F5E816F9060A071B07E3
:10071000B8F59C01AD012E193F09400B510B21305A
:1007200060E8360760E0460760E0560768F180E061
:1007300090E8A0E0B0E0E80EF91E0A1F1B1FE0924F
:10074000BC01F092BD010093BE011093BF0180E097
:1007500090E8AFEFBFEFE80EF91E0A1F1B1F2050F5
:100760003048404050402093B7013093B801409347
:10077000B9015093BA0120E030E840E050E014C0E5
:1007800020E030E040E050E08093BC019093BD0158
:10079000A093BE01B093BF011092B7011092B801AF
:1007A0001092B9011092BA01A901B7012CB53DB55B
:1007B000C9018E199F0903968417950720F0B90186
:1007C0006D5F7F4F02C0640F751F6115710511F4D5
:1007D00061E070E0615070407BBD6ABD80E186BF22
:1007E00087B7806187BF1F910F91FF90EF900895A9
:1007F0000F931F930FB7F89411276093BC01709368
:10080000BD018093BE019093BF012093B701309347
:10081000B8014093B9015093BA010E9458030FBF29
:100820001F910F91089597B79F7D97BF90E296BF54
:10083000882319F08EB5806402C08EB58F7B8EBD83
:1008400087B7806287BF80E090E00895DF92EF92E3
:10085000FF920F931F938FB7F894282F3327D22E30
:1008600091B782B746B7981711F041FF02C02FBF6A
:100870006AC08091CF018823E1F10E945D02E0907F
:10088000F601F090F7010091F8011091F901209123
:1008900056013091570140915801509159016E19FC
:1008A0007F09800B910B621773078407950720F06F
:1008B0001092CF0171E01EC02E0D3F1D401F511F31
:1008C0008091420190914301A0914401B091450172
:1008D000281B390B4A0B5B0B273E3105410551059F
:1008E00040F4822F223010F070E005C070E082E00A
:1008F00002C070E086EE682F615000B601FCFDCFAB
:1009000082B7681709F46F5F20914201309143016B
:100910004091440150914501DA01C9010196A11DA0
:10092000B11D860F911DA11DB11D82179307A4074C
:10093000B50710F4622F609561BFDFBE772319F011
:1009400080E00E943D011F910F91FF90EF90DF909A
:100950000895AFB7F894BB27E1E0E093CF0160932F
:10096000F6017093F7018093F8019093F9012093B9
:100970005601309357014093580150935901AFBF2E
:100980000E9426040895AF92BF92CF92DF92EF9219
:10099000FF920F931F93CF93DF93CDB7DEB72897C6
:1009A0000FB6F894DEBF0FBECDBF20E070E0E0913F
:1009B0000001F091010132E14DE65CE46FE48091C9
:1009C00001019E2F28960FB6F894DEBF0FBECDBF53
:1009D000DF91CF911F910F91FF90EF90DF90CF901B
:1009E000BF90AF9008951F920F920FB60F921124EF
:1009F0008F9383B783BF00B600FCFDCF8F910F901C
:100A00000FBE0F901F90189578941F920F920FB6FB
:100A10000F9211240F900FBE0F901F90189578948D
:100A20001F920F920FB60F9211240F900FBE0F90CE
:100A30001F90189578941F920F920FB60F92112461
:100A40002F933F938F939F932FB7F89433278091E1
:100A5000D6019091D70101969093D7018093D6014A
:100A60002FBF9F918F913F912F910F900FBE0F90AD
:100A70001F9018951F920F920FB60F9211240F908E
:100A80000FBE0F901F9018951F920F920FB60F92E6
:100A900011240F900FBE0F901F9018951F920F9268
:100AA0000FB60F9211240F900FBE0F901F90189544
:100AB0001F920F920FB60F9211240F900FBE0F903E
:100AC0001F9018951F920F920FB60F9211240F903E
:100AD0000FBE0F901F9018951F920F920FB60F9296
:100AE00011240F900FBE0F901F9018951F920F9218
:100AF0000FB60F9211240F900FBE0F901F901895F4
:100B00001F920F920FB60F9211242F933F934F9382
:100B10005F936F937F938F939F93AF93BF93EF9365
:100B2000FF9383B783BF00B600FCFDCF81B7992741
:100B30000196AA27BB2720914201309143014091A1
:100B4000440150914501280F391F4A1F5B1F209314
:100B500042013093430140934401509345017894FE
:100B60000E942604FF91EF91BF91AF919F918F91C9
:100B70007F916F915F914F913F912F910F900FBE99
:100B80000F901F9018950F931F93182F0FB7F8947D
:100B900061E080E00E94B400882371F51093190190
:100BA00080911C018823A9F580913201823089F55A
:100BB00088E00CC00E94EB0080913201882349F448
:100BC00081E080933201109272018AE00E943D011F
:100BD0002AC08091BB018F3F31F5E0911B01EE23CC
:100BE00011F11CC010921A0104C0FF27E554FE4FFA
:100BF000108210921B0117C081E090E002C0880FA4
:100C0000991F1A95E2F720913101282B2093310189
:100C10000AC0809132018823E1F6CCCF80911A017D
:100C20008F3F19F7DFCF802F99278FBF80E090E0AB
:100C30001F910F9108951F9383E00E94000199274F
:100C4000182F882319F083E00E94C305812F99276C
:100C50001F910895CF92DF92EF92FF920F931F930F
:100C6000CF93DF938C01F62E6A01E22E8FB7F894B2
:100C7000C82FDD2760E080E00E94CE00882321F0AD
:100C8000CFBF80E090E01EC0CFBF0F0D111D802FA1
:100C900080680E946401F82E16950795802F807C4D
:100CA0000E9464010E2D0AC0EE2DFF27E01BF10902
:100CB000EC0DFD1D80810E94640101500023A1F70D
:100CC0008F2D9927DF91CF911F910F91FF90EF907A
:100CD000DF90CF900895CF93DF93CDB7DEB72C97F9
:100CE0000FB6F894DEBF0FBECDBF8FB7F894282F94
:100CF000AE014F5F5F4FDA01E0E0F2E088E0019083
:100D00000D928150E1F78091770190917801898768
:100D1000892F99278A878091C0019091C1018B8783
:100D2000892F99278C872FBF2CE060E080E691E027
:100D30000E942A062C960FB6F894DEBF0FBECDBFD8
:100D4000DF91CF9108951F93CF93DF93182F8FB723
:100D5000F894C82FDD2760E080E00E94CE00882351
:100D600021F0CFBF80E090E005C0CFBF812F0E946F
:100D700064019927DF91CF911F910895EF92FF921F
:100D80000F931F93CF93DF93182F7B01042F8FB7FF
:100D9000F894C82FDD2760E080E00E94CE00882311
:100DA00021F0CFBF80E090E014C0CFBF1064812F4E
:100DB00099279093C5018093C4010E946401182F64
:100DC000402F5527B70180E090E00E94DE01812F7F
:100DD0009927DF91CF911F910F91FF90EF90089588
:100DE000C09860913B0170913C0141E08FE30E940B
:100DF000BE06089582E090E090936C0180936B01B1
:100E000081E08093760120E030E080911901843008
:100E100011F421E030E0232B29F484E00E9400014A
:100E2000882319F40E94F006089584E00E94C30507
:100E300008951F920F920FB60F9211242F933F9394
:100E40004F935F936F937F938F939F93AF93BF93D2
:100E5000EF93FF9380916B0190916C01019749F49E
:100E600082E090E090936C0180936B010E94FA06FF
:100E700005C0809171018F5F80937101FF91EF91A7
:100E8000BF91AF919F918F917F916F915F914F91A2
:100E90003F912F910F900FBE0F901F9018951F93A9
:100EA00080913101882309F04BC0109119011F3F37
:100EB00009F046C060E00E94CE00882309F440C0DB
:100EC00081E08093090280915B018823E1F1109217
:100ED000090285E090E045C0923069F5C09A8091A2
:100EE0001A0120E030E08F3F11F421E030E0232BA5
:100EF000E9F410931C018F3F19F42FEF30E00DC07F
:100F0000282F3327F901E554FE4F808180931A0181
:100F10008F3F11F410931B0110832093720181E025
:100F2000809332018AE00E943D0105C010931C01AC
:100F30001092320111C080913201882369F00FC0F4
:100F400081E090E00EC080911C01909132018823D5
:100F500019F2923021F0EFCF80E00E94DF0080E0B4
:100F600090E01F9108951F93182F81E090E09093D7
:100F700034018093330110925B010E944F078FB7B9
:100F8000F894992710932D018FBF84E00E943D01B2
:100F90001F9108951F93CF93DF939FB7F894C92FA4
:100FA000DD271C2F90911901981721F0CFBF81E008
:100FB00090E03AC08FEF80931901309131013323D3
:100FC000F1F48FB7F89499271092FA018FBF0E941D
:100FD0004F07CFBF11C02093190181E090E002C0FC
:100FE000880F991F4A95E2F7809538233093310195
:100FF00088E00E943D011FBF80E090E015C080E0C6
:1010000065E0E32FFF270E94981B292F492F5527C2
:10101000CF01042E02C0959587950A94E2F780FDD2
:10102000DACF822F8F5FEFCFDF91CF911F9108959D
:101030001F93CF93DF938FB7F894C82FDD271C2F12
:1010400080916B0190916C01892B29F484E00E94BE
:10105000CA07CFBF1EC0109276018091710188230C
:1010600011F0B79904C00E9908C0882319F0815077
:10107000809371010E94FA060BC081E090E090938A
:101080006C0180936B011092710184E00E94CA0789
:101090001FBFDF91CF911F9108950E94A002C09AB7
:1010A000C09888E00E94A30688E00E94A306C09A28
:1010B00084E00E94CA070E9418080895FF920F93C7
:1010C0001F93CF93DF93F82E8B018FB7F894C82F1F
:1010D000DD2760E080E00E94CE00882321F0CFBFB2
:1010E00080E090E00CC0CFBF8F2D0E946401812F63
:1010F00099270E946401802F0E9464019927DF9143
:10110000CF911F910F91FF9008951F931FB7F894EF
:1011100080917001882319F460E070E009C060E0FC
:101120008091E102882309F461E081E06827772754
:1011300080917901882319F480E090E00AC090E062
:101140008091FF01882309F491E081E09827892F9D
:101150009927762F6627770F770F770FF4E0880FA0
:10116000991FFA95E1F7826E9262682B792B81E1E3
:101170000E945E08812F99278FBF1F9108958FB716
:10118000F8949927609108028FBF85E0689FB001AD
:101190001124625D7E4F706488E10E945E080895AC
:1011A000EF92FF921F93CF93DF93E090AE01F09008
:1011B000AF01F70182A59927182F882309F41FE1B1
:1011C000C09880916F01811749F0612F77276F7167
:1011D0007070606E706885E10E945E0810936F0108
:1011E000F70110818FB7F894C82FDD2760E080E009
:1011F0000E94CE00882311F0CFBF12C0CFBF8EE374
:1012000090E09093C5018093C4018EE30E94640135
:101210001150412F552760E070E0C7010E94DE01A8
:10122000DF91CF911F91FF90EF9008950F931F933F
:10123000CF93DF93EC010FB7F89411270E94700051
:10124000FC018FE380830FBF1092DD021092DC025D
:1012500061E082E00E94B400882319F085E090E00C
:1012600072C080910A028F5F80930A0281508B8343
:101270008FB7F894082F112762E081E00E94CE001A
:10128000882329F40FBF0E94FF0181E05BC08FB764
:10129000F894992724E02093FB018FBFD093CD01D0
:1012A000C093CC010FBFFE0131968181298199271E
:1012B000982F88273327822B932B80729C7C8983DD
:1012C000892F992781832981982F882733272164A3
:1012D000822B932B8983892F992781831CA618A69B
:1012E00019A619AA18AA1FA680E88EA761E0609324
:1012F000FE014091CC015091CD018FB7F894282F79
:10130000332780913301909134018830910511F099
:10131000019711F02FBF15C082E090E09093340147
:10132000809333016093EA025093AF014093AE0182
:10133000109241012FBF0E941B06882311F40E94C6
:10134000D00880E09927DF91CF911F910F910895E8
:10135000CF93DF93DA01422F2D3118F082E090E035
:101360005EC0ED018B876E83872F99278F832FB700
:10137000F894332780917701909178012FBFFD0178
:101380008483892F992785832FB7F89433278091F9
:101390001D0190911E012FBF8887892F992789876A
:1013A0003196818129819927982F882733272064B6
:1013B0003868822B932B8983892F99278183435FF8
:1013C0004C934D5080912001882359F010922001B8
:1013D000642FCD010E9416099927282F8823A9F48C
:1013E00017C0842F99279093CB018093CA01B093A3
:1013F0003801A09337018CE00E943D0180912001CB
:10140000882349F489E090E00AC08FEF809320019F
:10141000822F992704C01092B40180E090E0DF9100
:10142000CF9108951F93182FE82FFF27EE0FFF1F6E
:10143000EC52FE4F1182108210922301E091D401F0
:10144000F091D501309721F08091DA0280FF0CC035
:1014500081E08093230103C08EE00E943D011123AF
:10146000A9F41092CE0112C020812D50332767813C
:101470007727762F662786819927682B792BAF01EE
:1014800083850E94A809882351F3E6CF1F91089510
:101490009B0180912301882349F46091D4017091CC
:1014A000D5016217730711F40E94120A08958F92F2
:1014B0009F92AF92BF92CF92DF92EF920F931F93C2
:1014C000CF93DF934C01EB018091E00181FF03C0DA
:1014D00080E090E07AC0413039F580912401882382
:1014E00009F071C040932401E0910001F0910101E5
:1014F000EE0FFF1FE75FFE4FA080B180CC24DD24FC
:101500000E945D02AB01BC0101E0E02E9601850165
:1015100080E00E943E02AAE7B1E0FE0184E3019070
:101520000D928150E1F74BC0423041F58091250189
:10153000882309F048C081E080932501E0910001F3
:10154000F0910101EE0FFF1FE75FFE4FA080B18019
:10155000CC24DD240E945D02AB01BC01B1E0EB2E86
:101560009601850180E00E943E02AAE7B1E0FE01FB
:1015700084E301900D928150E1F721C0442319F5D5
:10158000E0910001F0910101EE0FFF1FE75FFE4FB8
:10159000A080B180CC24DD240E945D02AB01BC019F
:1015A000E1E0EE2E9601850180E00E943E02AAE76E
:1015B000B1E0FE0184E301900D928150E1F7909239
:1015C0003A018092390181E090E0DF91CF911F9143
:1015D0000F91EF90DF90CF90BF90AF909F908F9042
:1015E0000895AF92BF92CF92DF92EF92FF920F9346
:1015F0001F93CF93DF935B016C01C0E0D0E0E8ED77
:10160000F1E0608561FFE3C0208131814281538137
:10161000E480F58006811781D601C501821B930BFA
:10162000A40BB50B8E159F05A007B10708F4CFC01A
:1016300060FF03C06D7F608708C02E0D3F1D401FF7
:10164000511F2083318342835383CC2321F0C13047
:1016500009F0C3C063C02091390130913A018091F3
:10166000CE01882309F0B9C086E891E09093E502A5
:101670008093E402AC014C50504020938001632FD2
:101680007727609381018AE0809385018091D4015E
:101690009091D501892B09F0A0C05093D5014093BA
:1016A000D40189E180937A01809123018823D1F0CC
:1016B000762F6627822F9927682B792B109223018A
:1016C0002CE08AE00E94A8099927282F882351F04E
:1016D00081E0809323011092D5011092D40122233E
:1016E00009F07BC080910B0290910C028130910532
:1016F00041F480912801882369F481E080932801D6
:1017000009C0029739F480912901882319F481E0F6
:101710008093290181E08093CE015FC067E070E093
:1017200089E692E00E94060280937401C1EBD2E048
:10173000882381F110920C0210920B0267E070E096
:1017400089E692E00E9422029093D1018093D00119
:10175000D093E502C093E402209100013091010191
:101760001092B2021092B1023093B4022093B302ED
:1017700027E030E03093B6022093B50225E030E058
:101780003093B8022093B70240910B02BE016C5017
:1017900070401AC081E090E090930C0280930B029D
:1017A000D093E502C093E4029093B2028093B10219
:1017B00087E090E09093BA028093B90241E0BE01C5
:1017C0006C5070408FEF9FEF0E94570A06C0219621
:1017D0003996C330D10509F014CF81E00E943D0154
:1017E000DF91CF911F910F91FF90EF90DF90CF90FD
:1017F000BF90AF900895CF92DF92EF92FF920F9338
:101800001F93CFB6F894DD240E94BB02DC01CB010C
:1018100066E470E00E94B11B7BE0E72EF12CE80E3D
:10182000F91EF092E702E092E6020E943B030027D5
:101830001127A80197010E94F803CFBE1F910F91B5
:10184000FF90EF90DF90CF9008951F93CF93DF9399
:101850008FB7F894C82FDD271C2F8091330190910A
:1018600034010897C9F489E00E94A30683E00E942E
:10187000CA07C09A81E090E09093340180933301CD
:101880008FB7F894992723E020932D018FBF84E030
:101890000E943D01CFBF30C0C0988091EA028823EA
:1018A00011F085E001C084E00E94A30683FD09C019
:1018B00080E00E94A30683FF04C085E090E020E062
:1018C00003C083E090E021E09093340180933301E2
:1018D000C09A1FBF222341F01092410183E00E9471
:1018E000CA070E94FB0B08C00E943B0320E431E0C2
:1018F00040E050E00E94F803DF91CF911F910895DE
:10190000EF92FF920F931F93CF93DF938B01809100
:10191000C4019091C50186FF40C18F7B8F3309F0D0
:101920008EC1C0913B01D0913C01588150936D0113
:1019300080916B0190916C018530910509F443C051
:101940008630910509F48AC0029709F01FC185E02D
:1019500090E090936C0180936B0140915A01852F28
:1019600099270196242F3327281739074CF1B79967
:1019700006C00E9904C0451B415040935A01409146
:101980006D014A32E8F44423A1F0BE016F5F7F4F3E
:10199000483018F047E050E007C086E090E09093B0
:1019A0006C0180936B01552780E090E00E94DE017E
:1019B00046C110927601C09A84E00E94CA07E3C033
:1019C0000E944D083CC186E090E090936C018093AA
:1019D0006B0180917901882309F439C08091FF015E
:1019E0008823A9F5898185FF32C08F814E812FB769
:1019F000F89433276091C0017091C1012FBF9927DE
:101A0000982F88275527842B952B8617970759F0F1
:101A10008F812E819927982F88273327822B932B0C
:101A20008F5F9F4FA1F489818770813081F4C09AC4
:101A3000C0988AE00E94A306C09AC09840916D01A8
:101A400047502896BE018FE30E94BE06F8C0409121
:101A50006D01475055272896BE01A6CFC09A8091A8
:101A60007101882339F484E00E94CA0780917101D2
:101A7000882311F0B7990AC00E9B08C090916502A7
:101A8000992321F080916D018B3038F480913B01D6
:101A900090913C010E94AC023DC0913001F5E09173
:101AA000D902FF27EE0FFF1FEE0FFF1FEF5EFD4F66
:101AB0002081318142815381E0913B01F0913C01D1
:101AC00021ABBB27A52F942F832F80ABCA01AA2758
:101AD000BB2787A7252F33274427552726A7809183
:101AE000D9029927019668E070E00E94C51B809397
:101AF000D90280916502815080936502882351F05C
:101B000080913B0190913C010E94AC021092D9025D
:101B10001092650280916D01FE01E80FF11D808138
:101B200087FF31C0012B79F169816770E0913B013A
:101B3000F0913C01623019F5A091AE01B091AF0176
:101B4000109709F180913301909134010797D9F4EE
:101B5000ED019B8183819817B1F487B78F7E87BF92
:101B6000908181E08CA7E90FF11D8291319688A7C1
:101B700080818F7789A780E00E94B30704C061301D
:101B800011F48BE02AC00E94180859C01092760107
:101B9000C09A84E00E94CA0752C08E3309F04FC039
:101BA000C09A80913301909134010897C9F4C0988C
:101BB00089E00E94A306C09A83E00E94CA0781E0E0
:101BC00090E090933401809333018FB7F894992774
:101BD00023E020932D018FBF84E00E943D012FC0A0
:101BE0008091EA02882349F484E090E090933401E4
:101BF000809333010E94250C22C083E00E94CA0713
:101C000083E090E090933401809333010E94BB0203
:101C1000DC01CB0166E371E00E94B11BEBE0EE2E2C
:101C2000F12CE80EF91EF0925301E09252010E944D
:101C30003B0300271127A80197010E94F803DF91B9
:101C4000CF911F910F91FF90EF9008951F920F92E7
:101C50000FB60F9211242F933F934F935F936F937F
:101C60007F938F939F93AF93BF93EF93FF932FB186
:101C7000E091F301F091F401309739F08091D201B5
:101C80009091D301E80FF91F20838091D2019091A8
:101C9000D30101969093D3018093D20180E00E94FA
:101CA000E50040913D0150913E018091D20190911B
:101CB000D3018417950718F40E9470011CC060912D
:101CC000F3017091F4018091E2029091E30210928D
:101CD000F4011092F3011092E3021092E2021092CA
:101CE0003E0110923D011092D3011092D2012FB10A
:101CF00020E00E94800CFF91EF91BF91AF919F91E6
:101D00008F917F916F915F914F913F912F910F90A4
:101D10000FBE0F901F90189578941F920F920FB6D8
:101D20000F9211242F923F924F925F926F927F9267
:101D30008F929F92AF92BF92CF92DF92EF92FF92DB
:101D40000F931F932F933F934F935F936F937F93C3
:101D50008F939F93AF93BF93CF93DF93EF93FF93B3
:101D6000C6B5D7B58FB7F894282E0E943B039B01C8
:101D70002C1B3D0B442755272B013C01421A530ACB
:101D8000640A750A80913301909134018530910580
:101D900021F0069709F0E0C0BFC086E090E0909384
:101DA00034018093330131E0332E3092750110926B
:101DB000350180E00E941304E091AE01F091AF0183
:101DC00041AABB27A72D962D852D80ABC301AA273D
:101DD000BB2787A7872D9927AA27BB2786A7E0912E
:101DE000AE01F091AF0185A5882309F484C060811C
:101DF000655077274F01860E971EF4012081E18000
:101E00008281A3809927AA27BB27BA2FA92F982FB1
:101E10008827332744275527522F44273327222743
:101E2000FF24002711278701FF24EE242E293F29B4
:101E3000402B512BBB24CC24DD242A293B294C29BF
:101E40005D29822B932BA42BB52B84199509A60908
:101E5000B7098383292F3A2F4B2F552722839D01C2
:101E60004427552721838B2F9927AA27BB278083B7
:101E7000C09824E0A40180E090E00E942A06C09A65
:101E8000F4012081E1808281A3809927AA27BB27C2
:101E9000BA2FA92F982F8827332744275527522F49
:101EA000442733272227FF24002711278701FF24F7
:101EB000EE242E293F29402B512BBB24CC24DD249A
:101EC0002A293B294C295D29822B932BA42BB52B46
:101ED000840D951DA61DB71D8383292F3A2F4B2FE7
:101EE000552722839D014427552721838B2F99272E
:101EF000AA27BB278083E091AE01F091AF018181D9
:101F000085FF02C030925B0183E00E94CA0787B759
:101F10008F7E87BF84997AC01092750181E00E94FC
:101F20001304E091AE01F091AF01818185FF0FC0F4
:101F300087E090E090933401809333010E943B034B
:101F400020E031E040E050E00E94F80303C080E070
:101F50000E94B307849B5AC080913501882391F574
:101F600080917501882371F511E0109375010E942D
:101F7000130480B320916502283098F4E091D902CF
:101F8000E20FFF27E770F070EE0FFF1FEE0FFF1F4D
:101F9000EF5EFD4F40825182628273822F5F2093F9
:101FA000650210933501D093C701C093C60184998F
:101FB0002DC0992764E0969587956A95E1F7182FCB
:101FC000117001C010E0809175018130F9F4109218
:101FD00075010E941304109235011123B9F4809108
:101FE000C6019091C701C81BD90B2A9778F480913C
:101FF0006502882319F08150809365028091AE01BB
:102000009091AF01009711F00E94AC022FBEFF919A
:10201000EF91DF91CF91BF91AF919F918F917F9180
:102020006F915F914F913F912F911F910F91FF9071
:10203000EF90DF90CF90BF90AF909F908F907F9068
:102040006F905F904F903F902F900F900FBE0F902A
:102050001F90189578941F920F920FB60F9211242B
:102060001F932F933F934F935F936F937F938F9320
:102070009F93AF93BF93EF93FF9387B78F7E87BFF5
:1020800078941FB7F8948091B7019091B801A0910E
:10209000B901B091BA010097A105B10509F051C08D
:1020A00080913301909134018530910561F1863042
:1020B000910530F48330910549F0049781F51AC0F9
:1020C00087309105F1F0089751F514C0869B0FC039
:1020D00084E090E090933401809333010E943B03AD
:1020E00027E030E040E050E00E94F80318C00E9472
:1020F000FB0B15C00E941B06882389F40E94250C47
:102100000EC080E00AC089E00E94A30681E00E9420
:10211000130483E00E94CA0787E00E94B3078091FE
:102120002E0190912F01019771F482E090E090933D
:102130002F0180932E01DE98DE9A80E00E94C30575
:1021400002C00E945803812F99278FBFFF91EF9102
:10215000BF91AF919F918F917F916F915F914F91BF
:102160003F912F911F910F900FBE0F901F901895C8
:1021700061E081E00E94B4008823E9F48FB7F8940D
:10218000282F332780912E0190912F01892B11F058
:102190002FBF20C081E090E090932F0180932E010B
:1021A0002FBFDD9A0E943B0324E130E040E050E085
:1021B0000E94F8030FC062E081E00E94CE008823F5
:1021C00019F089E090E0089561E081E00E94CE007E
:1021D000882319F080E090E0089585E090E008956C
:1021E000AF92BF92CF92DF92EF92FF920F931F9325
:1021F000CF93DF93CDB7DEB7A8970FB6F894DEBFC5
:102200000FBECDBF873009F499C1883098F4833070
:1022100009F41BC1843038F4813009F45BC082308A
:1022200008F0B0C024C0853009F466C1863008F0DB
:102230007EC111C18B3009F4AEC28C3038F48930C4
:1022400009F472C28A3008F092C2B1C18D3039F0FF
:102250008D3008F482C68E3009F0D2C6C4C6809193
:10226000DA02882309F4CCC620E031E09EC68091D2
:102270006E01882361F520910D0230910E0240918C
:102280000F0250911002EFB7F894FF276091F6010A
:102290007091F7018091F8019091F901E090560159
:1022A000F090570100915801109159016E0D7F1D5A
:1022B000801F911FEFBF20930D0230930E024093B9
:1022C0000F025093100210926E010E94A9040E9406
:1022D0005D0243C00E945D025B016C018FB7F89400
:1022E00099271092CF018FBFAFEFEA2EAFEFFA2EF2
:1022F000AFEF0A2FAFE71A2F60E0E8EDF1E080853D
:1023000081FF1CC080819181A281B381A6019501CA
:10231000281B390B4A0B5B0BDA01C901248135817B
:1023200046815781281B390B4A0B5B0B2E153F0545
:10233000400751071CF479018A0161E0399631E0C8
:10234000E33FF307E1F6662309F45AC61E141F049F
:10235000100611062CF0C601B5010E94F10A50C604
:10236000E0920D02F0920E0200930F021093100201
:1023700081E080936E01A8019701C601B5010E941A
:10238000A9043EC60FB7F894112781E00E941304F8
:10239000F1E0EF2EF12CF0923401E0923301109233
:1023A000350110925B0110926F010FBF0FB7F894C7
:1023B00011270E94A002F0926C01E0926B01109232
:1023C000760189B78F7B89BF80E488BF8AB7806236
:1023D0008ABF8AB78F7E8ABF89B7806489BF0FBFE3
:1023E0008FB7F894082F112780912E0190912F011B
:1023F000049719F483E00E94A3060FBF0FB7F89467
:102400001127C09A80E00E94CA070FBF8FB7F894C7
:10241000992722E02093FB018FBF809100019091CA
:102420000101019709F0ECC50E945D02AB01BC01FE
:10243000E1E0EE2E08E813E120E030E081E00E94C8
:102440003E0281E080932A01DBC58FB7F89499277B
:102450001092FB0171C08FB7F8949927F0902D016D
:102460008FBF63E081E00E94CE00882359F10FB74F
:10247000F8941127109234011092330187B78F7EA0
:1024800087BF87B78F7D87BF83E00E94CA07C09A46
:102490000FBF0FB7F894112710926C0110926B01C7
:1024A0000E94A002C09A89B78F7B89BF0FBF10928C
:1024B0002F0110922E01DE98DD98DE9A83E00E94B3
:1024C0003D0107C08FB7F894992722E02093FB01C4
:1024D0008FBF0091CC011091CD010E94FF0180912E
:1024E000DC029091DD02892B09F08AC58FEF809381
:1024F00020014F2DB80150C58FB7F894282F3327EE
:10250000122F8091E802882309F581E08093E80288
:1025100080912E0190912F01049721F481E00E9477
:10252000C30503C086E00E943D011FBF69C58FB788
:10253000F89499271092E8028FBF62C58FB7F8947C
:10254000282F332780913001882311F02FBF58C5E1
:102550002FBF80B3992736E0969587953A95E1F796
:10256000182F11709091C2018091C3018917D9F081
:102570001917C9F484E090E090932F0180932E0105
:102580008FB7F894992721E0209330018FBF60E046
:1025900070E08DE10E945E080E946B06C09AC098B0
:1025A00082E00E943D011093C30187E06DC08FB7A8
:1025B000F8949927109119018FBF123009F467C060
:1025C000133030F4112359F0113009F019C548C007
:1025D000133009F476C0143009F012C5A2C0C098B7
:1025E0008FB7F894082F112780912E0190912F0119
:1025F0000297A1F583E090E090932F0180932E0144
:1026000068E170E08DE10E945E0881E08093C20184
:102610001092300180B3992726E0969587952A95E8
:10262000E1F7817090708093C30187E00E943D01C3
:1026300081E00E94A3066FE772E08CE10E945E08D1
:102640000E94BF080E94850866E57AE287E10E9441
:102650005E086FEF70E885E10E945E080FBFD0C48E
:10266000C09886E00E94A3060E94BF080E948508C9
:102670000E946B06C09AC09883E00E94A306C09A8D
:1026800081E00E94CA0786E00E943D01B9C4C0985B
:102690008FB7F894082F112760E080E00E94CE00E9
:1026A000882311F00FBF0AC00FBF83E50E946401A9
:1026B00080E00E94640180E00E946401C09A82E090
:1026C0002DC08FB7F8949927209133018FBF243004
:1026D00039F0283041F0223001F50E94D00890C432
:1026E0000E94250C8DC4C09889E00E94A306C09A60
:1026F00083E00E94CA078FB7F894992721E030E061
:1027000030933401209333018FBF8FB7F89499270A
:1027100010932D018FBF84E0B7CF83E00E94CA07DA
:102720006FC40E94F0066CC40FB7F8941127409153
:102730003D0150913E016091F3017091F40180914F
:10274000E2029091E3021092F4011092F3011092D0
:10275000E3021092E20210923E0110923D011092AB
:10276000D3011092D20120E00E94800C77CF2FB7C6
:10277000F89433278091720180931C0182E080934A
:1027800032012FBF80911C01882309F039C4B89A07
:10279000C09888E079CFA0913B01B0913C011C9199
:1027A0009D01210F311DF9018081881F8827881F15
:1027B000FD0183A7F90180818F77FD0181A7215059
:1027C0003040F9018081FD0180A7A0913B01B091CB
:1027D0003C01FD0132818FB7F89499272091700157
:1027E0008FBF222309F490C0832F99279695879550
:1027F00096958795837090708230910541F5878119
:1028000046812FB7F89433276091C0017091C101C0
:102810002FBF9927982F88275527842B952B86170C
:10282000970719F481E090E06CC0FD018781268153
:1028300040E050E09927982F88273327822B932B4D
:102840008F5F9F4F11F441E050E0CA015AC00397D7
:1028500009F07AC39E012F5F3F4F40E052E088E0CD
:10286000FA010190AF01F90101929F018150C1F776
:102870009E012F5D3F4FAE014F5F5F4F88E0FA0131
:102880000190AF01F90101929F018150C1F79E01B2
:10289000275F3F4FAE014F5D5F4F88E0FA01019027
:1028A000AF01F90101929F018150C1F79E012F5E96
:1028B0003F4FAE01475F5F4F88E0FA010190AF01E3
:1028C000F90101929F018150C1F79E01275E3F4FA0
:1028D000AE014F5E5F4F88E0FA010190AF01F90150
:1028E00001929F018150C1F748E050E0BE01675E50
:1028F0007F4FCD0106960E942E1C892B09F024C320
:1029000003C0882309F420C31D3008F41DC3C09000
:102910003B01D0903C01F6012281822F992736E0BD
:10292000969587953A95E1F7039719F468E070E07A
:1029300002C062E070E0822F992796958795969560
:10294000879583709070039719F488E090E002C037
:1029500082E090E026E030E0C20ED31E40E050E07E
:1029600020E030E0F601E80FF91F8AEF9FEFC80E74
:10297000D91E05C08191480F511D2F5F3F4F26176B
:102980003707C4F3F60163818FEF8093E0028FB7BE
:10299000F894782F20E030E0E6E4F1E08081918146
:1029A0008417950731F48281861709F4B4C2209305
:1029B000E0022F5F3F4F33962430310579F77FBF18
:1029C0009091E0023FB7F8949F3F21F0809136014B
:1029D000891799F420913601822F9927FC01EE0F77
:1029E000FF1FE80FF91FEA5BFE4F518340836283AC
:1029F0002F5F2370209336010CC0892F9927FC018B
:102A0000EE0FFF1FE80FF91FEA5BFE4F5183408373
:102A10006283832F99278FBF0FB7F8941127C601C0
:102A20000E947000FC0190810FBFF60183A58823EE
:102A300009F486C29F3309F083C2878146812FB78C
:102A4000F894332760911D0170911E012FBF9927C3
:102A5000982F88275527842B952B8617970761F089
:102A6000878126819927982F88273327822B932BBC
:102A70008F5F9F4F09F064C2F60183858A3009F0A9
:102A80005FC2D6011C96B0934001A0933F0104851C
:102A900015850130110509F45BC00130110528F0DE
:102AA0000230110509F010C2EBC0FD01648175818F
:102AB00080910001909101016817790709F404C21F
:102AC00089E692E00E940602809374018823C9F18E
:102AD00010920C0210920B02E0913F01F091400124
:102AE0006481758189E692E00E9422029093D1016F
:102AF0008093D00161EB72E0E0913F01F0914001E1
:102B0000A681B78144815581228133811092B2021E
:102B10001092B1023093B4022093B3025093B602E4
:102B20004093B502B093B802A093B7027093E50248
:102B30006093E40240910B026C5070400E94570A6F
:102B4000C3C18AE090E09093C9018093C801BCC1E1
:102B5000FD01408551858091000190910101481748
:102B6000590759F580912C01882329F481E080933D
:102B70002C0180932B0182E090E090930C028093D3
:102B80000B0261EB72E0FD01208531859093B2026A
:102B90008093B1025093B4024093B3023093BA02CF
:102BA0002093B9021093BC020093BB027093E5021C
:102BB0006093E40240910B0252C0BA0189E692E0B0
:102BC0000E94060280937401E0913F01F091400160
:102BD00061EBE62E62E0F62E882361F102E010E060
:102BE00010930C0200930B026085718589E692E0D8
:102BF0000E94840201969093DF028093DE02E091AE
:102C00003F01F091400140855185209100013091B4
:102C100001011093B2020093B1023093B4022093E9
:102C2000B3025093BA024093B9029093BC028093CE
:102C3000BB020EC010930C0200930B02808591859D
:102C40001093B2020093B1029093BA028093B9023A
:102C5000F092E502E092E40240910B02B7016C5061
:102C600070408FEF9FEF0E94570A80910001909172
:102C70000101069709F428C181E080932A0124C14B
:102C8000FD016085718589E692E00E9406028093CD
:102C90007401E0913F01F09140016085718589E602
:102CA00092E00E948402AC019093B6018093B5013A
:102CB000E0913F01F0914001248135818091000134
:102CC000909101012817390709F4F5C0809174012A
:102CD000882331F0828593858417950708F0EBC02F
:102CE000A284B384E280F38000851185B80189E66F
:102CF00092E00E9406028093DB02882351F1109239
:102D0000C9011092C80180E090E020E030E0FC01B1
:102D1000EE0FFF1FE80FF91FEE0FFF1FE759FD4FE2
:102D2000808191818017910769F4F382E282F90131
:102D3000EE0FFF1FE20FF31FEE0FFF1FE759FD4FCE
:102D4000B582A482C90101969C018A309105F8F2EE
:102D500033C01092C9011092C80180E090E020E0D9
:102D600030E0FC01EE0FFF1FE80FF91FEE0FFF1F11
:102D7000E759FD4F80819181892BC1F48281938134
:102D8000892BA1F4848195818F5F9F4F79F4118302
:102D90000083F901EE0FFF1FE20FF31FEE0FFF1F7D
:102DA000E759FD4FF382E282B582A482C901019600
:102DB0009C018A309105A8F29093C9018093C801C3
:102DC00080910001909101010197C1F5E0913F01CF
:102DD000F0914001008511850730110579F51092B9
:102DE0000C0210920B0267E070E089E692E00E940C
:102DF00022029093D1018093D00161EB72E0209187
:102E00000001309101011092B2021092B102309390
:102E1000B4022093B3021093B6020093B50225E0EA
:102E200030E03093B8022093B7027093E5026093CC
:102E3000E40240910B026C5070403BC002E010E095
:102E400010930C0200930B02E0913F01F0914001BE
:102E50006085718589E692E00E94840201969093D4
:102E6000DF028093DE0261EB72E0E0913F01F091BE
:102E7000400140855185209100013091010110935E
:102E8000B2020093B1023093B4022093B302509384
:102E9000BA024093B9029093BC028093BB02709334
:102EA000E5026093E40240910B026C5070408FEF9A
:102EB0009FEF0E94570A80910001909101010697AF
:102EC00019F081E080932B01E0912601F091270118
:102ED000EE5FFE4F808163E00E94A41B892F99273B
:102EE00087FD909590935501809354018130910511
:102EF00061F08130910518F00297B9F40EC08FB7D8
:102F0000F89499272BB334E00DC08FB7F894992724
:102F10002BB332E007C07FBF13C08FB7F894992757
:102F20002BB331E023272BBB8FBF809126019091DB
:102F30002701019687709070909327018093260156
:102F4000D0923C01C0923B018FB7F8949927109220
:102F500076018FBF0E94180853C09091B4018091F0
:102F60002001981709F44CC0909320019923C9F4CB
:102F700000913701109138016091CA01C8010E9487
:102F80001609482F55274423D9F18FEF809320014C
:102F90006091370170913801F80183850E94480AD9
:102FA0002FC08FEF809320012BC09091DA02832FE6
:102FB0008923A1F0E22FFF27EE0FFF1FEC52FE4FF7
:102FC00011821082832F809598239093DA02222316
:102FD00029F41092CE01330F21E0E7CF2F5F283084
:102FE00078F4330FE2CF80912301E82FFF27EE0F13
:102FF000FF1FEC52FE4F6081718141E00E94120A76
:10300000A8960FB6F894DEBF0FBECDBFDF91CF916B
:103010001F910F91FF90EF90DF90CF90BF90AF90F6
:103020000895809166028F3FB1F0282F3327F90170
:10303000E45AFE4F8081809366028F3F11F48093A3
:10304000E9028FEF80832F3F31F0822F0E94F01032
:1030500081E090E0089580E090E008951F93CF9381
:10306000DF93CDB7DEB7E0970FB6F894DEBF0FBEA3
:10307000CDBF1FB7F8944FE050E06FEF70E08CE5E4
:1030800091E00E943B1C8FEF809366028093E902DF
:1030900081E08EBD88E080BF83E083BF8CB59DB5A5
:1030A0004AE72CB53DB52817390708F441504423A9
:1030B00011F0C901F6CF92B782B78917E9F32CB5A1
:1030C0003DB592B782B78917E9F38CB59DB5821BE0
:1030D000930B409675E0969587957A95E1F79093D6
:1030E00068028093670213BE83B78EBD8EB580BF22
:1030F00012BE1DBC1CBC8FEF86BF86B780937C00C0
:1031000080B7992787709070892BD1F7D29AD19A7E
:10311000D09ADA9AD99AD89A15BA8FEF84BBD498F4
:10312000DC981DBC1CBC87B7846087BF8EB5887FC8
:1031300084608EBD0E9411188823E1F78FEF809381
:103140007301E6E4F1E08FEF9FEF918380831282B9
:10315000339621E0E235F207C1F70E94BB0260938B
:103160000A0280910001909101010196AA27BB27D4
:103170008093B0019093B101A093B201B093B301D9
:1031800081E392E090933C0180933B018E98B89A42
:103190008C988FEF8093BB011092FA011092FB0183
:1031A0001092FC011092FD01B89AD69AD59A8FB769
:1031B000F894992720911D0130911E018FBF309303
:1031C000C1012093C0010E94C30429A73AA74BA7BD
:1031D0005CA76DA77EA78FA798ABDE019196FE0135
:1031E000B99688E001900D928150E1F7DE01519689
:1031F000FE01B19688E001900D928150E1F7DE0169
:103200005996FE01719688E001900D928150E1F788
:10321000A0E0B2E0FE01799688E001900D92815025
:10322000E1F780911F0199279093780180937701AE
:103230008FE18093F5018AE1809308020E94C30424
:1032400029A73AA74BA75CA76DA77EA78FA798AB26
:10325000DE019196FE01B99688E001900D928150B1
:10326000E1F7DE011196FE01B19688E001900D9222
:103270008150E1F7DE011996FE01319688E0019058
:103280000D928150E1F7A0E0B2E0FE01399688E0AE
:1032900001900D928150E1F7A0E0B2E0FD01379678
:1032A0009C9180818D939083319782E0E330F80781
:1032B000B9F781E0809370011092E1028093790167
:1032C0001092FF0180B7886080BF8BE083BF86EEDD
:1032D00081BF87B7826087BF0E9426040E941118B1
:1032E0008823E1F7812F99278FBF78941092C90125
:1032F0001092C80180E090E04FEF5FEF20E030E0F7
:10330000A9E6B2E0FC01EE0FFF1FE80FF91FEE0F78
:10331000FF1FE759FD4F11821082FD0113821282B7
:10332000558344832F5F3F4F1696C9012A303105DC
:1033300048F38AE090E09093C9018093C80180919E
:103340002601909127010196877090709093270134
:10335000809326010E94B8108FB7F894482F552704
:103360004BC087B7992783709070892B19F4E5E0DB
:10337000F0E013C080B7992787709070892BD1F740
:1033800081B792B7891B8C3030F082B7853F18F433
:10339000E3E0F0E002C0E2E0F0E087B7887BC1F450
:1033A00080917D008B7FA1F46E9912C08AB19091BB
:1033B0009A00892B887161F48091740082FD08C0A5
:1033C000379B03C081E090E005C085E090E002C03B
:1033D00080E090E025B78E1708F4E82FFF27E45728
:1033E000FF4FE491237E2062E22BE5BF789488951D
:1033F000F89485B78F7D85BF809166028F3F09F471
:10340000B0CF282F3327F901E45AFE4F80818093F3
:1034100066028F3F11F48093E9028FEF80832F3F84
:1034200009F49FCF4FBF822F0E94F01095CFACE2DE
:10343000B0E0EDE1FAE10C94F71B222E332E442E7E
:10344000552E662E772E882E992EFE013196A8E0F5
:103450001192AA95E9F729823A824B825C826D82A9
:103460007E828F829886FE013996B8E01192BA95D5
:10347000E9F7A986BA86CB86DC86ED86FE860F87BD
:10348000188B89819A81AB81BC8189A79AA7ABA748
:10349000BCA77C018D018FEF9FEFA0E0B0E0E82298
:1034A000F9220A231B2389A59AA5ABA5BCA51D015A
:1034B0004424552489859A85AB85BC858DA39EA31C
:1034C000AFA3B8A75C016D018FEF9FEFA0E0B0E064
:1034D000A822B922CA22DB228DA19EA1AFA1B8A544
:1034E0003D0188249924C801B701A60195010E94D5
:1034F000D81B69A37AA38BA39CA3C801B701A4011D
:1035000093010E94D81B7B018C01C201B101A6016D
:1035100095010E94D81B5B016C01C201B101A4019D
:1035200093010E94D81B3B014C01EA0CFB1C0C1DB3
:103530001D1D89A19AA1ABA1BCA19D0144275527BE
:103540002E0D3F1D401F511F2A153B054C055D05E3
:1035500040F480E090E0A1E0B0E0680E791E8A1EA1
:103560009B1ECA01AA27BB27860D971DA81DB91D42
:103570008D8F9E8FAF8FB8A3A9013327222789A1F2
:103580009AA1ABA1BCA1A070B070280F391F4A1F2F
:103590005B1F298F3A8F4B8F5C8FA98CBA8CCB8C99
:1035A000DC8CED8CFE8C0F8D18A1FE01719698E0DD
:1035B00011929A95E9F7ED8AFE8A0F8B188F2D816B
:1035C0003E814F8158856DA17EA18FA198A50E9453
:1035D000D81B3B014C012D853E854F85588969A537
:1035E0007AA58BA59CA50E94D81B2D893E894F8961
:1035F000588D260F371F481F591F260D371D481D90
:10360000591D2D8B3E8B4F8B588F6D887E888F88F0
:10361000988C2A2D3B2D4C2D5D2D662D772D882DD8
:10362000992DE2E1AC960C94131CA0E1B0E0EBE123
:10363000FBE10C94F71B222E332E442E552E662EC2
:10364000772E882E992E002309F466C088E0FE01AB
:10365000319611928A95E9F729833A834B835C83EB
:103660006D837E838F829887E0E2E01B1E16CCF587
:103670002D813E814F815885602F772767FD70959A
:10368000DA01C901062E04C0B695A79597958795CE
:103690000A94D2F78D879E87AF87B88B04C0220F1C
:1036A000331F441F551FEA95D2F789819A81AB8158
:1036B000BC8104C0B695A795979587956A95D2F772
:1036C000282B392B4A2B5B2B29873A874B875C8722
:1036D00029843A844B845C846D847E848F849888AA
:1036E0001BC01D861E861F86188A2E2F332727FD96
:1036F0003095309521953F4F8D819E81AF81B88562
:1037000004C0B695A795979587952A95D2F789878E
:103710009A87AB87BC87DCCF222D332D442D552DC6
:10372000662D772D882D992DE2E160960C94131C5F
:10373000991B79E004C0991F961708F0961B881F03
:103740007A95C9F78095089587FB082E062687FD90
:10375000819567FD6195ECDF0EF4919507FC8195ED
:103760000895AA1BBB1B51E107C0AA1FBB1FA617C8
:10377000B70710F0A61BB70B881F991F5A95A9F71A
:1037800080959095BC01CD01089597FB092E0726E1
:103790000AD077FD04D0E5DF06D000201AF470953A
:1037A00061957F4F0895F6F7909581959F4F089505
:1037B000629FD001739FF001829FE00DF11D649F15
:1037C000E00DF11D929FF00D839FF00D749FF00DA1
:1037D000659FF00D9927729FB00DE11DF91F639F42
:1037E000B00DE11DF91FBD01CF01112408952F92E5
:1037F0003F924F925F926F927F928F929F92AF9281
:10380000BF92CF92DF92EF92FF920F931F93CF93CD
:10381000DF93CDB7DEB7CA1BDB0B0FB6F894DEBF64
:103820000FBECDBF09942A88398848885F846E848A
:103830007D848C849B84AA84B984C884DF80EE80D4
:10384000FD800C811B81AA81B981CE0FD11D0FB6DD
:10385000F894DEBF0FBECDBFED010895FB01DC0182
:1038600004C08D910190801921F441505040C8F757
:10387000881B990B0895DC0101C06D9341505040A5
:06388000E0F70895FFCF00
:1038860001003130353831313937003D00AD000B9C
:10389600017301DF014702B102FFFFFFFF010022B2
:0438A600FFFFFF0120
:00000001FF
